{
	"data": {
		"bytecode": {
			"linkReferences": {},
			"object": "60806040523480156200001157600080fd5b5060016000819055506040518060400160405280600481526020017f6472617700000000000000000000000000000000000000000000000000000000815250600460008060028111156200006a5762000069620002a2565b5b60028111156200007f576200007e620002a2565b5b81526020019081526020016000209080519060200190620000a2929190620001bc565b506040518060400160405280600981526020017f706c617965724f6e6500000000000000000000000000000000000000000000008152506004600060016002811115620000f457620000f3620002a2565b5b6002811115620001095762000108620002a2565b5b815260200190815260200160002090805190602001906200012c929190620001bc565b506040518060400160405280600981526020017f706c6179657254776f0000000000000000000000000000000000000000000000815250600460006002808111156200017d576200017c620002a2565b5b6002811115620001925762000191620002a2565b5b81526020019081526020016000209080519060200190620001b5929190620001bc565b5062000300565b828054620001ca906200026c565b90600052602060002090601f016020900481019282620001ee57600085556200023a565b82601f106200020957805160ff19168380011785556200023a565b828001600101855582156200023a579182015b82811115620002395782518255916020019190600101906200021c565b5b5090506200024991906200024d565b5090565b5b80821115620002685760008160009055506001016200024e565b5090565b600060028204905060018216806200028557607f821691505b602082108114156200029c576200029b620002d1565b5b50919050565b7f4e487b7100000000000000000000000000000000000000000000000000000000600052602160045260246000fd5b7f4e487b7100000000000000000000000000000000000000000000000000000000600052602260045260246000fd5b61227b80620003106000396000f3fe6080604052600436106100865760003560e01c8063bed34bba11610059578063bed34bba1461015c578063d0e30db014610199578063d43077e6146101a3578063e2734c93146101e0578063fbfeb0c71461021d57610086565b80633b80e6ca1461008b57806360058390146100b45780636d20931a146100dd5780637b38314c1461011f575b600080fd5b34801561009757600080fd5b506100b260048036038101906100ad91906117b2565b610246565b005b3480156100c057600080fd5b506100db60048036038101906100d6919061186a565b610515565b005b3480156100e957600080fd5b5061010460048036038101906100ff91906117b2565b610f32565b60405161011696959493929190611ac6565b60405180910390f35b34801561012b57600080fd5b5061014660048036038101906101419190611758565b611066565b6040516101539190611c6b565b60405180910390f35b34801561016857600080fd5b50610183600480360381019061017e919061186a565b61107e565b6040516101909190611b2e565b60405180910390f35b6101a16110d7565b005b3480156101af57600080fd5b506101ca60048036038101906101c59190611785565b6111b1565b6040516101d79190611b49565b60405180910390f35b3480156101ec57600080fd5b5061020760048036038101906102029190611758565b611251565b6040516102149190611c6b565b60405180910390f35b34801561022957600080fd5b50610244600480360381019061023f91906117fb565b61129a565b005b3373ffffffffffffffffffffffffffffffffffffffff1660038260405161026d9190611aaf565b908152602001604051809103902060010160009054906101000a900473ffffffffffffffffffffffffffffffffffffffff1673ffffffffffffffffffffffffffffffffffffffff16146102f5576040517f08c379a00000000000000000000000000000000000000000000000000000000081526004016102ec90611c4b565b60405180910390fd5b6000600281111561030957610308611f4d565b5b6003826040516103199190611aaf565b908152602001604051809103902060040160009054906101000a900460ff16600281111561034a57610349611f4d565b5b1461038a576040517f08c379a000000000000000000000000000000000000000000000000000000000815260040161038190611beb565b60405180910390fd5b600060038260405161039c9190611aaf565b9081526020016040518091039020600201549050600260003373ffffffffffffffffffffffffffffffffffffffff1673ffffffffffffffffffffffffffffffffffffffff16815260200190815260200160002054811115610432576040517f08c379a000000000000000000000000000000000000000000000000000000000815260040161042990611c0b565b60405180910390fd5b61048481600260003373ffffffffffffffffffffffffffffffffffffffff1673ffffffffffffffffffffffffffffffffffffffff168152602001908152602001600020546115c490919063ffffffff16565b600260003373ffffffffffffffffffffffffffffffffffffffff1673ffffffffffffffffffffffffffffffffffffffff1681526020019081526020016000208190555060016003836040516104d99190611aaf565b908152602001604051809103902060040160006101000a81548160ff0219169083600281111561050c5761050b611f4d565b5b02179055505050565b6001600281111561052957610528611f4d565b5b6003836040516105399190611aaf565b908152602001604051809103902060040160009054906101000a900460ff16600281111561056a57610569611f4d565b5b146105aa576040517f08c379a00000000000000000000000000000000000000000000000000000000081526004016105a190611c2b565b60405180910390fd5b61067381600460006002808111156105c5576105c4611f4d565b5b60028111156105d7576105d6611f4d565b5b815260200190815260200160002080546105f090611ebb565b80601f016020809104026020016040519081016040528092919081815260200182805461061c90611ebb565b80156106695780601f1061063e57610100808354040283529160200191610669565b820191906000526020600020905b81548152906001019060200180831161064c57829003601f168201915b505050505061107e565b806107435750610742816004600080600281111561069457610693611f4d565b5b60028111156106a6576106a5611f4d565b5b815260200190815260200160002080546106bf90611ebb565b80601f01602080910402602001604051908101604052809291908181526020018280546106eb90611ebb565b80156107385780601f1061070d57610100808354040283529160200191610738565b820191906000526020600020905b81548152906001019060200180831161071b57829003601f168201915b505050505061107e565b5b80610814575061081381600460006001600281111561076557610764611f4d565b5b600281111561077757610776611f4d565b5b8152602001908152602001600020805461079090611ebb565b80601f01602080910402602001604051908101604052809291908181526020018280546107bc90611ebb565b80156108095780601f106107de57610100808354040283529160200191610809565b820191906000526020600020905b8154815290600101906020018083116107ec57829003601f168201915b505050505061107e565b5b610853576040517f08c379a000000000000000000000000000000000000000000000000000000000815260040161084a90611bab565b60405180910390fd5b60026003836040516108659190611aaf565b908152602001604051809103902060040160006101000a81548160ff0219169083600281111561089857610897611f4d565b5b021790555060006003836040516108af9190611aaf565b908152602001604051809103902060000160009054906101000a900473ffffffffffffffffffffffffffffffffffffffff16905060006003846040516108f59190611aaf565b908152602001604051809103902060010160009054906101000a900473ffffffffffffffffffffffffffffffffffffffff169050600060038560405161093b9190611aaf565b9081526020016040518091039020600201549050610a18846004600080600281111561096a57610969611f4d565b5b600281111561097c5761097b611f4d565b5b8152602001908152602001600020805461099590611ebb565b80601f01602080910402602001604051908101604052809291908181526020018280546109c190611ebb565b8015610a0e5780601f106109e357610100808354040283529160200191610a0e565b820191906000526020600020905b8154815290600101906020018083116109f157829003601f168201915b505050505061107e565b15610b96576000600386604051610a2f9190611aaf565b908152602001604051809103902060040160016101000a81548160ff02191690836002811115610a6257610a61611f4d565b5b0217905550610ab981600260008673ffffffffffffffffffffffffffffffffffffffff1673ffffffffffffffffffffffffffffffffffffffff168152602001908152602001600020546115da90919063ffffffff16565b600260008573ffffffffffffffffffffffffffffffffffffffff1673ffffffffffffffffffffffffffffffffffffffff16815260200190815260200160002081905550610b4e81600260008573ffffffffffffffffffffffffffffffffffffffff1673ffffffffffffffffffffffffffffffffffffffff168152602001908152602001600020546115da90919063ffffffff16565b600260008473ffffffffffffffffffffffffffffffffffffffff1673ffffffffffffffffffffffffffffffffffffffff16815260200190815260200160002081905550610f2b565b610c60846004600060016002811115610bb257610bb1611f4d565b5b6002811115610bc457610bc3611f4d565b5b81526020019081526020016000208054610bdd90611ebb565b80601f0160208091040260200160405190810160405280929190818152602001828054610c0990611ebb565b8015610c565780601f10610c2b57610100808354040283529160200191610c56565b820191906000526020600020905b815481529060010190602001808311610c3957829003601f168201915b505050505061107e565b15610d62576001600386604051610c779190611aaf565b908152602001604051809103902060040160016101000a81548160ff02191690836002811115610caa57610ca9611f4d565b5b02179055506000610cc56002836115f090919063ffffffff16565b9050610d1981600260008773ffffffffffffffffffffffffffffffffffffffff1673ffffffffffffffffffffffffffffffffffffffff168152602001908152602001600020546115da90919063ffffffff16565b600260008673ffffffffffffffffffffffffffffffffffffffff1673ffffffffffffffffffffffffffffffffffffffff1681526020019081526020016000208190555050610f2a565b610e2b8460046000600280811115610d7d57610d7c611f4d565b5b6002811115610d8f57610d8e611f4d565b5b81526020019081526020016000208054610da890611ebb565b80601f0160208091040260200160405190810160405280929190818152602001828054610dd490611ebb565b8015610e215780601f10610df657610100808354040283529160200191610e21565b820191906000526020600020905b815481529060010190602001808311610e0457829003601f168201915b505050505061107e565b15610f29576002600386604051610e429190611aaf565b908152602001604051809103902060040160016101000a81548160ff02191690836002811115610e7557610e74611f4d565b5b02179055506000610e906002836115f090919063ffffffff16565b9050610ee481600260008673ffffffffffffffffffffffffffffffffffffffff1673ffffffffffffffffffffffffffffffffffffffff168152602001908152602001600020546115da90919063ffffffff16565b600260008573ffffffffffffffffffffffffffffffffffffffff1673ffffffffffffffffffffffffffffffffffffffff16815260200190815260200160002081905550505b5b5b5050505050565b6003818051602081018201805184825260208301602085012081835280955050505050506000915090508060000160009054906101000a900473ffffffffffffffffffffffffffffffffffffffff16908060010160009054906101000a900473ffffffffffffffffffffffffffffffffffffffff1690806002015490806003018054610fbd90611ebb565b80601f0160208091040260200160405190810160405280929190818152602001828054610fe990611ebb565b80156110365780601f1061100b57610100808354040283529160200191611036565b820191906000526020600020905b81548152906001019060200180831161101957829003601f168201915b5050505050908060040160009054906101000a900460ff16908060040160019054906101000a900460ff16905086565b60026020528060005260406000206000915090505481565b6000816040516020016110919190611aaf565b60405160208183030381529060405280519060200120836040516020016110b89190611aaf565b6040516020818303038152906040528051906020012014905092915050565b6000341161111a576040517f08c379a000000000000000000000000000000000000000000000000000000000815260040161111190611b6b565b60405180910390fd5b61116c34600260003373ffffffffffffffffffffffffffffffffffffffff1673ffffffffffffffffffffffffffffffffffffffff168152602001908152602001600020546115da90919063ffffffff16565b600260003373ffffffffffffffffffffffffffffffffffffffff1673ffffffffffffffffffffffffffffffffffffffff16815260200190815260200160002081905550565b600460205280600052604060002060009150905080546111d090611ebb565b80601f01602080910402602001604051908101604052809291908181526020018280546111fc90611ebb565b80156112495780601f1061121e57610100808354040283529160200191611249565b820191906000526020600020905b81548152906001019060200180831161122c57829003601f168201915b505050505081565b6000600260008373ffffffffffffffffffffffffffffffffffffffff1673ffffffffffffffffffffffffffffffffffffffff168152602001908152602001600020549050919050565b600073ffffffffffffffffffffffffffffffffffffffff168273ffffffffffffffffffffffffffffffffffffffff161415801561130357503373ffffffffffffffffffffffffffffffffffffffff168273ffffffffffffffffffffffffffffffffffffffff1614155b611342576040517f08c379a000000000000000000000000000000000000000000000000000000000815260040161133990611b8b565b60405180910390fd5b600260003373ffffffffffffffffffffffffffffffffffffffff1673ffffffffffffffffffffffffffffffffffffffff168152602001908152602001600020548111156113c4576040517f08c379a00000000000000000000000000000000000000000000000000000000081526004016113bb90611bcb565b60405180910390fd5b61141681600260003373ffffffffffffffffffffffffffffffffffffffff1673ffffffffffffffffffffffffffffffffffffffff168152602001908152602001600020546115c490919063ffffffff16565b600260003373ffffffffffffffffffffffffffffffffffffffff1673ffffffffffffffffffffffffffffffffffffffff168152602001908152602001600020819055508260038460405161146a9190611aaf565b9081526020016040518091039020600301908051906020019061148e929190611606565b50336003846040516114a09190611aaf565b908152602001604051809103902060000160006101000a81548173ffffffffffffffffffffffffffffffffffffffff021916908373ffffffffffffffffffffffffffffffffffffffff160217905550816003846040516115009190611aaf565b908152602001604051809103902060010160006101000a81548173ffffffffffffffffffffffffffffffffffffffff021916908373ffffffffffffffffffffffffffffffffffffffff160217905550806003846040516115609190611aaf565b90815260200160405180910390206002018190555060006003846040516115879190611aaf565b908152602001604051809103902060040160006101000a81548160ff021916908360028111156115ba576115b9611f4d565b5b0217905550505050565b600081836115d29190611db3565b905092915050565b600081836115e89190611d03565b905092915050565b600081836115fe9190611d59565b905092915050565b82805461161290611ebb565b90600052602060002090601f016020900481019282611634576000855561167b565b82601f1061164d57805160ff191683800117855561167b565b8280016001018555821561167b579182015b8281111561167a57825182559160200191906001019061165f565b5b509050611688919061168c565b5090565b5b808211156116a557600081600090555060010161168d565b5090565b60006116bc6116b784611cab565b611c86565b9050828152602081018484840111156116d8576116d7611fdf565b5b6116e3848285611e79565b509392505050565b6000813590506116fa81612207565b92915050565b60008135905061170f8161221e565b92915050565b600082601f83011261172a57611729611fda565b5b813561173a8482602086016116a9565b91505092915050565b6000813590506117528161222e565b92915050565b60006020828403121561176e5761176d611fe9565b5b600061177c848285016116eb565b91505092915050565b60006020828403121561179b5761179a611fe9565b5b60006117a984828501611700565b91505092915050565b6000602082840312156117c8576117c7611fe9565b5b600082013567ffffffffffffffff8111156117e6576117e5611fe4565b5b6117f284828501611715565b91505092915050565b60008060006060848603121561181457611813611fe9565b5b600084013567ffffffffffffffff81111561183257611831611fe4565b5b61183e86828701611715565b935050602061184f868287016116eb565b925050604061186086828701611743565b9150509250925092565b6000806040838503121561188157611880611fe9565b5b600083013567ffffffffffffffff81111561189f5761189e611fe4565b5b6118ab85828601611715565b925050602083013567ffffffffffffffff8111156118cc576118cb611fe4565b5b6118d885828601611715565b9150509250929050565b6118eb81611de7565b82525050565b6118fa81611df9565b82525050565b61190981611e55565b82525050565b61191881611e67565b82525050565b600061192982611cdc565b6119338185611ce7565b9350611943818560208601611e88565b61194c81611fee565b840191505092915050565b600061196282611cdc565b61196c8185611cf8565b935061197c818560208601611e88565b80840191505092915050565b6000611995602f83611ce7565b91506119a082611fff565b604082019050919050565b60006119b8601e83611ce7565b91506119c38261204e565b602082019050919050565b60006119db600e83611ce7565b91506119e682612077565b602082019050919050565b60006119fe601e83611ce7565b9150611a09826120a0565b602082019050919050565b6000611a21603483611ce7565b9150611a2c826120c9565b604082019050919050565b6000611a44601d83611ce7565b9150611a4f82612118565b602082019050919050565b6000611a67602583611ce7565b9150611a7282612141565b604082019050919050565b6000611a8a602283611ce7565b9150611a9582612190565b604082019050919050565b611aa981611e4b565b82525050565b6000611abb8284611957565b915081905092915050565b600060c082019050611adb60008301896118e2565b611ae860208301886118e2565b611af56040830187611aa0565b8181036060830152611b07818661191e565b9050611b16608083018561190f565b611b2360a0830184611900565b979650505050505050565b6000602082019050611b4360008301846118f1565b92915050565b60006020820190508181036000830152611b63818461191e565b905092915050565b60006020820190508181036000830152611b8481611988565b9050919050565b60006020820190508181036000830152611ba4816119ab565b9050919050565b60006020820190508181036000830152611bc4816119ce565b9050919050565b60006020820190508181036000830152611be4816119f1565b9050919050565b60006020820190508181036000830152611c0481611a14565b9050919050565b60006020820190508181036000830152611c2481611a37565b9050919050565b60006020820190508181036000830152611c4481611a5a565b9050919050565b60006020820190508181036000830152611c6481611a7d565b9050919050565b6000602082019050611c806000830184611aa0565b92915050565b6000611c90611ca1565b9050611c9c8282611eed565b919050565b6000604051905090565b600067ffffffffffffffff821115611cc657611cc5611fab565b5b611ccf82611fee565b9050602081019050919050565b600081519050919050565b600082825260208201905092915050565b600081905092915050565b6000611d0e82611e4b565b9150611d1983611e4b565b9250827fffffffffffffffffffffffffffffffffffffffffffffffffffffffffffffffff03821115611d4e57611d4d611f1e565b5b828201905092915050565b6000611d6482611e4b565b9150611d6f83611e4b565b9250817fffffffffffffffffffffffffffffffffffffffffffffffffffffffffffffffff0483118215151615611da857611da7611f1e565b5b828202905092915050565b6000611dbe82611e4b565b9150611dc983611e4b565b925082821015611ddc57611ddb611f1e565b5b828203905092915050565b6000611df282611e2b565b9050919050565b60008115159050919050565b6000819050611e13826121df565b919050565b6000819050611e26826121f3565b919050565b600073ffffffffffffffffffffffffffffffffffffffff82169050919050565b6000819050919050565b6000611e6082611e05565b9050919050565b6000611e7282611e18565b9050919050565b82818337600083830152505050565b60005b83811015611ea6578082015181840152602081019050611e8b565b83811115611eb5576000848401525b50505050565b60006002820490506001821680611ed357607f821691505b60208210811415611ee757611ee6611f7c565b5b50919050565b611ef682611fee565b810181811067ffffffffffffffff82111715611f1557611f14611fab565b5b80604052505050565b7f4e487b7100000000000000000000000000000000000000000000000000000000600052601160045260246000fd5b7f4e487b7100000000000000000000000000000000000000000000000000000000600052602160045260246000fd5b7f4e487b7100000000000000000000000000000000000000000000000000000000600052602260045260246000fd5b7f4e487b7100000000000000000000000000000000000000000000000000000000600052604160045260246000fd5b600080fd5b600080fd5b600080fd5b600080fd5b6000601f19601f8301169050919050565b7f506c65617365204465706f73697420612076616c696420616d6f756e7420677260008201527f6561746572207468616e207a65726f0000000000000000000000000000000000602082015250565b7f456e74657220612076616c6964206f70706f6e656e7420616464726573730000600082015250565b7f496e76616c696420526573756c74000000000000000000000000000000000000600082015250565b7f506c61796572732066756e64732061726520696e73756666696369656e740000600082015250565b7f47616d65206e6f742073746172746564206f722068617320616c72656164792060008201527f6265656e2070617274696369706174656420696e000000000000000000000000602082015250565b7f506c617965722066756e64732061726520696e73756666696369656e74000000600082015250565b7f4d6174636820646964206e6f742073746172746564206f7220696e76616c696460008201527f20636f6465000000000000000000000000000000000000000000000000000000602082015250565b7f596f7520617265206e6f7420506c61796572203220666f72207468697320676160008201527f6d65000000000000000000000000000000000000000000000000000000000000602082015250565b600381106121f0576121ef611f4d565b5b50565b6003811061220457612203611f4d565b5b50565b61221081611de7565b811461221b57600080fd5b50565b6003811061222b57600080fd5b50565b61223781611e4b565b811461224257600080fd5b5056fea2646970667358221220ef0450dd029939c1b14c498029bcc53e1a6d7f6121c8290ea9a9987fa7d6c8dc64736f6c63430008070033",
			"opcodes": "PUSH1 0x80 PUSH1 0x40 MSTORE CALLVALUE DUP1 ISZERO PUSH3 0x11 JUMPI PUSH1 0x0 DUP1 REVERT JUMPDEST POP PUSH1 0x1 PUSH1 0x0 DUP2 SWAP1 SSTORE POP PUSH1 0x40 MLOAD DUP1 PUSH1 0x40 ADD PUSH1 0x40 MSTORE DUP1 PUSH1 0x4 DUP2 MSTORE PUSH1 0x20 ADD PUSH32 0x6472617700000000000000000000000000000000000000000000000000000000 DUP2 MSTORE POP PUSH1 0x4 PUSH1 0x0 DUP1 PUSH1 0x2 DUP2 GT ISZERO PUSH3 0x6A JUMPI PUSH3 0x69 PUSH3 0x2A2 JUMP JUMPDEST JUMPDEST PUSH1 0x2 DUP2 GT ISZERO PUSH3 0x7F JUMPI PUSH3 0x7E PUSH3 0x2A2 JUMP JUMPDEST JUMPDEST DUP2 MSTORE PUSH1 0x20 ADD SWAP1 DUP2 MSTORE PUSH1 0x20 ADD PUSH1 0x0 KECCAK256 SWAP1 DUP1 MLOAD SWAP1 PUSH1 0x20 ADD SWAP1 PUSH3 0xA2 SWAP3 SWAP2 SWAP1 PUSH3 0x1BC JUMP JUMPDEST POP PUSH1 0x40 MLOAD DUP1 PUSH1 0x40 ADD PUSH1 0x40 MSTORE DUP1 PUSH1 0x9 DUP2 MSTORE PUSH1 0x20 ADD PUSH32 0x706C617965724F6E650000000000000000000000000000000000000000000000 DUP2 MSTORE POP PUSH1 0x4 PUSH1 0x0 PUSH1 0x1 PUSH1 0x2 DUP2 GT ISZERO PUSH3 0xF4 JUMPI PUSH3 0xF3 PUSH3 0x2A2 JUMP JUMPDEST JUMPDEST PUSH1 0x2 DUP2 GT ISZERO PUSH3 0x109 JUMPI PUSH3 0x108 PUSH3 0x2A2 JUMP JUMPDEST JUMPDEST DUP2 MSTORE PUSH1 0x20 ADD SWAP1 DUP2 MSTORE PUSH1 0x20 ADD PUSH1 0x0 KECCAK256 SWAP1 DUP1 MLOAD SWAP1 PUSH1 0x20 ADD SWAP1 PUSH3 0x12C SWAP3 SWAP2 SWAP1 PUSH3 0x1BC JUMP JUMPDEST POP PUSH1 0x40 MLOAD DUP1 PUSH1 0x40 ADD PUSH1 0x40 MSTORE DUP1 PUSH1 0x9 DUP2 MSTORE PUSH1 0x20 ADD PUSH32 0x706C6179657254776F0000000000000000000000000000000000000000000000 DUP2 MSTORE POP PUSH1 0x4 PUSH1 0x0 PUSH1 0x2 DUP1 DUP2 GT ISZERO PUSH3 0x17D JUMPI PUSH3 0x17C PUSH3 0x2A2 JUMP JUMPDEST JUMPDEST PUSH1 0x2 DUP2 GT ISZERO PUSH3 0x192 JUMPI PUSH3 0x191 PUSH3 0x2A2 JUMP JUMPDEST JUMPDEST DUP2 MSTORE PUSH1 0x20 ADD SWAP1 DUP2 MSTORE PUSH1 0x20 ADD PUSH1 0x0 KECCAK256 SWAP1 DUP1 MLOAD SWAP1 PUSH1 0x20 ADD SWAP1 PUSH3 0x1B5 SWAP3 SWAP2 SWAP1 PUSH3 0x1BC JUMP JUMPDEST POP PUSH3 0x300 JUMP JUMPDEST DUP3 DUP1 SLOAD PUSH3 0x1CA SWAP1 PUSH3 0x26C JUMP JUMPDEST SWAP1 PUSH1 0x0 MSTORE PUSH1 0x20 PUSH1 0x0 KECCAK256 SWAP1 PUSH1 0x1F ADD PUSH1 0x20 SWAP1 DIV DUP2 ADD SWAP3 DUP3 PUSH3 0x1EE JUMPI PUSH1 0x0 DUP6 SSTORE PUSH3 0x23A JUMP JUMPDEST DUP3 PUSH1 0x1F LT PUSH3 0x209 JUMPI DUP1 MLOAD PUSH1 0xFF NOT AND DUP4 DUP1 ADD OR DUP6 SSTORE PUSH3 0x23A JUMP JUMPDEST DUP3 DUP1 ADD PUSH1 0x1 ADD DUP6 SSTORE DUP3 ISZERO PUSH3 0x23A JUMPI SWAP2 DUP3 ADD JUMPDEST DUP3 DUP2 GT ISZERO PUSH3 0x239 JUMPI DUP3 MLOAD DUP3 SSTORE SWAP2 PUSH1 0x20 ADD SWAP2 SWAP1 PUSH1 0x1 ADD SWAP1 PUSH3 0x21C JUMP JUMPDEST JUMPDEST POP SWAP1 POP PUSH3 0x249 SWAP2 SWAP1 PUSH3 0x24D JUMP JUMPDEST POP SWAP1 JUMP JUMPDEST JUMPDEST DUP1 DUP3 GT ISZERO PUSH3 0x268 JUMPI PUSH1 0x0 DUP2 PUSH1 0x0 SWAP1 SSTORE POP PUSH1 0x1 ADD PUSH3 0x24E JUMP JUMPDEST POP SWAP1 JUMP JUMPDEST PUSH1 0x0 PUSH1 0x2 DUP3 DIV SWAP1 POP PUSH1 0x1 DUP3 AND DUP1 PUSH3 0x285 JUMPI PUSH1 0x7F DUP3 AND SWAP2 POP JUMPDEST PUSH1 0x20 DUP3 LT DUP2 EQ ISZERO PUSH3 0x29C JUMPI PUSH3 0x29B PUSH3 0x2D1 JUMP JUMPDEST JUMPDEST POP SWAP2 SWAP1 POP JUMP JUMPDEST PUSH32 0x4E487B7100000000000000000000000000000000000000000000000000000000 PUSH1 0x0 MSTORE PUSH1 0x21 PUSH1 0x4 MSTORE PUSH1 0x24 PUSH1 0x0 REVERT JUMPDEST PUSH32 0x4E487B7100000000000000000000000000000000000000000000000000000000 PUSH1 0x0 MSTORE PUSH1 0x22 PUSH1 0x4 MSTORE PUSH1 0x24 PUSH1 0x0 REVERT JUMPDEST PUSH2 0x227B DUP1 PUSH3 0x310 PUSH1 0x0 CODECOPY PUSH1 0x0 RETURN INVALID PUSH1 0x80 PUSH1 0x40 MSTORE PUSH1 0x4 CALLDATASIZE LT PUSH2 0x86 JUMPI PUSH1 0x0 CALLDATALOAD PUSH1 0xE0 SHR DUP1 PUSH4 0xBED34BBA GT PUSH2 0x59 JUMPI DUP1 PUSH4 0xBED34BBA EQ PUSH2 0x15C JUMPI DUP1 PUSH4 0xD0E30DB0 EQ PUSH2 0x199 JUMPI DUP1 PUSH4 0xD43077E6 EQ PUSH2 0x1A3 JUMPI DUP1 PUSH4 0xE2734C93 EQ PUSH2 0x1E0 JUMPI DUP1 PUSH4 0xFBFEB0C7 EQ PUSH2 0x21D JUMPI PUSH2 0x86 JUMP JUMPDEST DUP1 PUSH4 0x3B80E6CA EQ PUSH2 0x8B JUMPI DUP1 PUSH4 0x60058390 EQ PUSH2 0xB4 JUMPI DUP1 PUSH4 0x6D20931A EQ PUSH2 0xDD JUMPI DUP1 PUSH4 0x7B38314C EQ PUSH2 0x11F JUMPI JUMPDEST PUSH1 0x0 DUP1 REVERT JUMPDEST CALLVALUE DUP1 ISZERO PUSH2 0x97 JUMPI PUSH1 0x0 DUP1 REVERT JUMPDEST POP PUSH2 0xB2 PUSH1 0x4 DUP1 CALLDATASIZE SUB DUP2 ADD SWAP1 PUSH2 0xAD SWAP2 SWAP1 PUSH2 0x17B2 JUMP JUMPDEST PUSH2 0x246 JUMP JUMPDEST STOP JUMPDEST CALLVALUE DUP1 ISZERO PUSH2 0xC0 JUMPI PUSH1 0x0 DUP1 REVERT JUMPDEST POP PUSH2 0xDB PUSH1 0x4 DUP1 CALLDATASIZE SUB DUP2 ADD SWAP1 PUSH2 0xD6 SWAP2 SWAP1 PUSH2 0x186A JUMP JUMPDEST PUSH2 0x515 JUMP JUMPDEST STOP JUMPDEST CALLVALUE DUP1 ISZERO PUSH2 0xE9 JUMPI PUSH1 0x0 DUP1 REVERT JUMPDEST POP PUSH2 0x104 PUSH1 0x4 DUP1 CALLDATASIZE SUB DUP2 ADD SWAP1 PUSH2 0xFF SWAP2 SWAP1 PUSH2 0x17B2 JUMP JUMPDEST PUSH2 0xF32 JUMP JUMPDEST PUSH1 0x40 MLOAD PUSH2 0x116 SWAP7 SWAP6 SWAP5 SWAP4 SWAP3 SWAP2 SWAP1 PUSH2 0x1AC6 JUMP JUMPDEST PUSH1 0x40 MLOAD DUP1 SWAP2 SUB SWAP1 RETURN JUMPDEST CALLVALUE DUP1 ISZERO PUSH2 0x12B JUMPI PUSH1 0x0 DUP1 REVERT JUMPDEST POP PUSH2 0x146 PUSH1 0x4 DUP1 CALLDATASIZE SUB DUP2 ADD SWAP1 PUSH2 0x141 SWAP2 SWAP1 PUSH2 0x1758 JUMP JUMPDEST PUSH2 0x1066 JUMP JUMPDEST PUSH1 0x40 MLOAD PUSH2 0x153 SWAP2 SWAP1 PUSH2 0x1C6B JUMP JUMPDEST PUSH1 0x40 MLOAD DUP1 SWAP2 SUB SWAP1 RETURN JUMPDEST CALLVALUE DUP1 ISZERO PUSH2 0x168 JUMPI PUSH1 0x0 DUP1 REVERT JUMPDEST POP PUSH2 0x183 PUSH1 0x4 DUP1 CALLDATASIZE SUB DUP2 ADD SWAP1 PUSH2 0x17E SWAP2 SWAP1 PUSH2 0x186A JUMP JUMPDEST PUSH2 0x107E JUMP JUMPDEST PUSH1 0x40 MLOAD PUSH2 0x190 SWAP2 SWAP1 PUSH2 0x1B2E JUMP JUMPDEST PUSH1 0x40 MLOAD DUP1 SWAP2 SUB SWAP1 RETURN JUMPDEST PUSH2 0x1A1 PUSH2 0x10D7 JUMP JUMPDEST STOP JUMPDEST CALLVALUE DUP1 ISZERO PUSH2 0x1AF JUMPI PUSH1 0x0 DUP1 REVERT JUMPDEST POP PUSH2 0x1CA PUSH1 0x4 DUP1 CALLDATASIZE SUB DUP2 ADD SWAP1 PUSH2 0x1C5 SWAP2 SWAP1 PUSH2 0x1785 JUMP JUMPDEST PUSH2 0x11B1 JUMP JUMPDEST PUSH1 0x40 MLOAD PUSH2 0x1D7 SWAP2 SWAP1 PUSH2 0x1B49 JUMP JUMPDEST PUSH1 0x40 MLOAD DUP1 SWAP2 SUB SWAP1 RETURN JUMPDEST CALLVALUE DUP1 ISZERO PUSH2 0x1EC JUMPI PUSH1 0x0 DUP1 REVERT JUMPDEST POP PUSH2 0x207 PUSH1 0x4 DUP1 CALLDATASIZE SUB DUP2 ADD SWAP1 PUSH2 0x202 SWAP2 SWAP1 PUSH2 0x1758 JUMP JUMPDEST PUSH2 0x1251 JUMP JUMPDEST PUSH1 0x40 MLOAD PUSH2 0x214 SWAP2 SWAP1 PUSH2 0x1C6B JUMP JUMPDEST PUSH1 0x40 MLOAD DUP1 SWAP2 SUB SWAP1 RETURN JUMPDEST CALLVALUE DUP1 ISZERO PUSH2 0x229 JUMPI PUSH1 0x0 DUP1 REVERT JUMPDEST POP PUSH2 0x244 PUSH1 0x4 DUP1 CALLDATASIZE SUB DUP2 ADD SWAP1 PUSH2 0x23F SWAP2 SWAP1 PUSH2 0x17FB JUMP JUMPDEST PUSH2 0x129A JUMP JUMPDEST STOP JUMPDEST CALLER PUSH20 0xFFFFFFFFFFFFFFFFFFFFFFFFFFFFFFFFFFFFFFFF AND PUSH1 0x3 DUP3 PUSH1 0x40 MLOAD PUSH2 0x26D SWAP2 SWAP1 PUSH2 0x1AAF JUMP JUMPDEST SWAP1 DUP2 MSTORE PUSH1 0x20 ADD PUSH1 0x40 MLOAD DUP1 SWAP2 SUB SWAP1 KECCAK256 PUSH1 0x1 ADD PUSH1 0x0 SWAP1 SLOAD SWAP1 PUSH2 0x100 EXP SWAP1 DIV PUSH20 0xFFFFFFFFFFFFFFFFFFFFFFFFFFFFFFFFFFFFFFFF AND PUSH20 0xFFFFFFFFFFFFFFFFFFFFFFFFFFFFFFFFFFFFFFFF AND EQ PUSH2 0x2F5 JUMPI PUSH1 0x40 MLOAD PUSH32 0x8C379A000000000000000000000000000000000000000000000000000000000 DUP2 MSTORE PUSH1 0x4 ADD PUSH2 0x2EC SWAP1 PUSH2 0x1C4B JUMP JUMPDEST PUSH1 0x40 MLOAD DUP1 SWAP2 SUB SWAP1 REVERT JUMPDEST PUSH1 0x0 PUSH1 0x2 DUP2 GT ISZERO PUSH2 0x309 JUMPI PUSH2 0x308 PUSH2 0x1F4D JUMP JUMPDEST JUMPDEST PUSH1 0x3 DUP3 PUSH1 0x40 MLOAD PUSH2 0x319 SWAP2 SWAP1 PUSH2 0x1AAF JUMP JUMPDEST SWAP1 DUP2 MSTORE PUSH1 0x20 ADD PUSH1 0x40 MLOAD DUP1 SWAP2 SUB SWAP1 KECCAK256 PUSH1 0x4 ADD PUSH1 0x0 SWAP1 SLOAD SWAP1 PUSH2 0x100 EXP SWAP1 DIV PUSH1 0xFF AND PUSH1 0x2 DUP2 GT ISZERO PUSH2 0x34A JUMPI PUSH2 0x349 PUSH2 0x1F4D JUMP JUMPDEST JUMPDEST EQ PUSH2 0x38A JUMPI PUSH1 0x40 MLOAD PUSH32 0x8C379A000000000000000000000000000000000000000000000000000000000 DUP2 MSTORE PUSH1 0x4 ADD PUSH2 0x381 SWAP1 PUSH2 0x1BEB JUMP JUMPDEST PUSH1 0x40 MLOAD DUP1 SWAP2 SUB SWAP1 REVERT JUMPDEST PUSH1 0x0 PUSH1 0x3 DUP3 PUSH1 0x40 MLOAD PUSH2 0x39C SWAP2 SWAP1 PUSH2 0x1AAF JUMP JUMPDEST SWAP1 DUP2 MSTORE PUSH1 0x20 ADD PUSH1 0x40 MLOAD DUP1 SWAP2 SUB SWAP1 KECCAK256 PUSH1 0x2 ADD SLOAD SWAP1 POP PUSH1 0x2 PUSH1 0x0 CALLER PUSH20 0xFFFFFFFFFFFFFFFFFFFFFFFFFFFFFFFFFFFFFFFF AND PUSH20 0xFFFFFFFFFFFFFFFFFFFFFFFFFFFFFFFFFFFFFFFF AND DUP2 MSTORE PUSH1 0x20 ADD SWAP1 DUP2 MSTORE PUSH1 0x20 ADD PUSH1 0x0 KECCAK256 SLOAD DUP2 GT ISZERO PUSH2 0x432 JUMPI PUSH1 0x40 MLOAD PUSH32 0x8C379A000000000000000000000000000000000000000000000000000000000 DUP2 MSTORE PUSH1 0x4 ADD PUSH2 0x429 SWAP1 PUSH2 0x1C0B JUMP JUMPDEST PUSH1 0x40 MLOAD DUP1 SWAP2 SUB SWAP1 REVERT JUMPDEST PUSH2 0x484 DUP2 PUSH1 0x2 PUSH1 0x0 CALLER PUSH20 0xFFFFFFFFFFFFFFFFFFFFFFFFFFFFFFFFFFFFFFFF AND PUSH20 0xFFFFFFFFFFFFFFFFFFFFFFFFFFFFFFFFFFFFFFFF AND DUP2 MSTORE PUSH1 0x20 ADD SWAP1 DUP2 MSTORE PUSH1 0x20 ADD PUSH1 0x0 KECCAK256 SLOAD PUSH2 0x15C4 SWAP1 SWAP2 SWAP1 PUSH4 0xFFFFFFFF AND JUMP JUMPDEST PUSH1 0x2 PUSH1 0x0 CALLER PUSH20 0xFFFFFFFFFFFFFFFFFFFFFFFFFFFFFFFFFFFFFFFF AND PUSH20 0xFFFFFFFFFFFFFFFFFFFFFFFFFFFFFFFFFFFFFFFF AND DUP2 MSTORE PUSH1 0x20 ADD SWAP1 DUP2 MSTORE PUSH1 0x20 ADD PUSH1 0x0 KECCAK256 DUP2 SWAP1 SSTORE POP PUSH1 0x1 PUSH1 0x3 DUP4 PUSH1 0x40 MLOAD PUSH2 0x4D9 SWAP2 SWAP1 PUSH2 0x1AAF JUMP JUMPDEST SWAP1 DUP2 MSTORE PUSH1 0x20 ADD PUSH1 0x40 MLOAD DUP1 SWAP2 SUB SWAP1 KECCAK256 PUSH1 0x4 ADD PUSH1 0x0 PUSH2 0x100 EXP DUP2 SLOAD DUP2 PUSH1 0xFF MUL NOT AND SWAP1 DUP4 PUSH1 0x2 DUP2 GT ISZERO PUSH2 0x50C JUMPI PUSH2 0x50B PUSH2 0x1F4D JUMP JUMPDEST JUMPDEST MUL OR SWAP1 SSTORE POP POP POP JUMP JUMPDEST PUSH1 0x1 PUSH1 0x2 DUP2 GT ISZERO PUSH2 0x529 JUMPI PUSH2 0x528 PUSH2 0x1F4D JUMP JUMPDEST JUMPDEST PUSH1 0x3 DUP4 PUSH1 0x40 MLOAD PUSH2 0x539 SWAP2 SWAP1 PUSH2 0x1AAF JUMP JUMPDEST SWAP1 DUP2 MSTORE PUSH1 0x20 ADD PUSH1 0x40 MLOAD DUP1 SWAP2 SUB SWAP1 KECCAK256 PUSH1 0x4 ADD PUSH1 0x0 SWAP1 SLOAD SWAP1 PUSH2 0x100 EXP SWAP1 DIV PUSH1 0xFF AND PUSH1 0x2 DUP2 GT ISZERO PUSH2 0x56A JUMPI PUSH2 0x569 PUSH2 0x1F4D JUMP JUMPDEST JUMPDEST EQ PUSH2 0x5AA JUMPI PUSH1 0x40 MLOAD PUSH32 0x8C379A000000000000000000000000000000000000000000000000000000000 DUP2 MSTORE PUSH1 0x4 ADD PUSH2 0x5A1 SWAP1 PUSH2 0x1C2B JUMP JUMPDEST PUSH1 0x40 MLOAD DUP1 SWAP2 SUB SWAP1 REVERT JUMPDEST PUSH2 0x673 DUP2 PUSH1 0x4 PUSH1 0x0 PUSH1 0x2 DUP1 DUP2 GT ISZERO PUSH2 0x5C5 JUMPI PUSH2 0x5C4 PUSH2 0x1F4D JUMP JUMPDEST JUMPDEST PUSH1 0x2 DUP2 GT ISZERO PUSH2 0x5D7 JUMPI PUSH2 0x5D6 PUSH2 0x1F4D JUMP JUMPDEST JUMPDEST DUP2 MSTORE PUSH1 0x20 ADD SWAP1 DUP2 MSTORE PUSH1 0x20 ADD PUSH1 0x0 KECCAK256 DUP1 SLOAD PUSH2 0x5F0 SWAP1 PUSH2 0x1EBB JUMP JUMPDEST DUP1 PUSH1 0x1F ADD PUSH1 0x20 DUP1 SWAP2 DIV MUL PUSH1 0x20 ADD PUSH1 0x40 MLOAD SWAP1 DUP2 ADD PUSH1 0x40 MSTORE DUP1 SWAP3 SWAP2 SWAP1 DUP2 DUP2 MSTORE PUSH1 0x20 ADD DUP3 DUP1 SLOAD PUSH2 0x61C SWAP1 PUSH2 0x1EBB JUMP JUMPDEST DUP1 ISZERO PUSH2 0x669 JUMPI DUP1 PUSH1 0x1F LT PUSH2 0x63E JUMPI PUSH2 0x100 DUP1 DUP4 SLOAD DIV MUL DUP4 MSTORE SWAP2 PUSH1 0x20 ADD SWAP2 PUSH2 0x669 JUMP JUMPDEST DUP3 ADD SWAP2 SWAP1 PUSH1 0x0 MSTORE PUSH1 0x20 PUSH1 0x0 KECCAK256 SWAP1 JUMPDEST DUP2 SLOAD DUP2 MSTORE SWAP1 PUSH1 0x1 ADD SWAP1 PUSH1 0x20 ADD DUP1 DUP4 GT PUSH2 0x64C JUMPI DUP3 SWAP1 SUB PUSH1 0x1F AND DUP3 ADD SWAP2 JUMPDEST POP POP POP POP POP PUSH2 0x107E JUMP JUMPDEST DUP1 PUSH2 0x743 JUMPI POP PUSH2 0x742 DUP2 PUSH1 0x4 PUSH1 0x0 DUP1 PUSH1 0x2 DUP2 GT ISZERO PUSH2 0x694 JUMPI PUSH2 0x693 PUSH2 0x1F4D JUMP JUMPDEST JUMPDEST PUSH1 0x2 DUP2 GT ISZERO PUSH2 0x6A6 JUMPI PUSH2 0x6A5 PUSH2 0x1F4D JUMP JUMPDEST JUMPDEST DUP2 MSTORE PUSH1 0x20 ADD SWAP1 DUP2 MSTORE PUSH1 0x20 ADD PUSH1 0x0 KECCAK256 DUP1 SLOAD PUSH2 0x6BF SWAP1 PUSH2 0x1EBB JUMP JUMPDEST DUP1 PUSH1 0x1F ADD PUSH1 0x20 DUP1 SWAP2 DIV MUL PUSH1 0x20 ADD PUSH1 0x40 MLOAD SWAP1 DUP2 ADD PUSH1 0x40 MSTORE DUP1 SWAP3 SWAP2 SWAP1 DUP2 DUP2 MSTORE PUSH1 0x20 ADD DUP3 DUP1 SLOAD PUSH2 0x6EB SWAP1 PUSH2 0x1EBB JUMP JUMPDEST DUP1 ISZERO PUSH2 0x738 JUMPI DUP1 PUSH1 0x1F LT PUSH2 0x70D JUMPI PUSH2 0x100 DUP1 DUP4 SLOAD DIV MUL DUP4 MSTORE SWAP2 PUSH1 0x20 ADD SWAP2 PUSH2 0x738 JUMP JUMPDEST DUP3 ADD SWAP2 SWAP1 PUSH1 0x0 MSTORE PUSH1 0x20 PUSH1 0x0 KECCAK256 SWAP1 JUMPDEST DUP2 SLOAD DUP2 MSTORE SWAP1 PUSH1 0x1 ADD SWAP1 PUSH1 0x20 ADD DUP1 DUP4 GT PUSH2 0x71B JUMPI DUP3 SWAP1 SUB PUSH1 0x1F AND DUP3 ADD SWAP2 JUMPDEST POP POP POP POP POP PUSH2 0x107E JUMP JUMPDEST JUMPDEST DUP1 PUSH2 0x814 JUMPI POP PUSH2 0x813 DUP2 PUSH1 0x4 PUSH1 0x0 PUSH1 0x1 PUSH1 0x2 DUP2 GT ISZERO PUSH2 0x765 JUMPI PUSH2 0x764 PUSH2 0x1F4D JUMP JUMPDEST JUMPDEST PUSH1 0x2 DUP2 GT ISZERO PUSH2 0x777 JUMPI PUSH2 0x776 PUSH2 0x1F4D JUMP JUMPDEST JUMPDEST DUP2 MSTORE PUSH1 0x20 ADD SWAP1 DUP2 MSTORE PUSH1 0x20 ADD PUSH1 0x0 KECCAK256 DUP1 SLOAD PUSH2 0x790 SWAP1 PUSH2 0x1EBB JUMP JUMPDEST DUP1 PUSH1 0x1F ADD PUSH1 0x20 DUP1 SWAP2 DIV MUL PUSH1 0x20 ADD PUSH1 0x40 MLOAD SWAP1 DUP2 ADD PUSH1 0x40 MSTORE DUP1 SWAP3 SWAP2 SWAP1 DUP2 DUP2 MSTORE PUSH1 0x20 ADD DUP3 DUP1 SLOAD PUSH2 0x7BC SWAP1 PUSH2 0x1EBB JUMP JUMPDEST DUP1 ISZERO PUSH2 0x809 JUMPI DUP1 PUSH1 0x1F LT PUSH2 0x7DE JUMPI PUSH2 0x100 DUP1 DUP4 SLOAD DIV MUL DUP4 MSTORE SWAP2 PUSH1 0x20 ADD SWAP2 PUSH2 0x809 JUMP JUMPDEST DUP3 ADD SWAP2 SWAP1 PUSH1 0x0 MSTORE PUSH1 0x20 PUSH1 0x0 KECCAK256 SWAP1 JUMPDEST DUP2 SLOAD DUP2 MSTORE SWAP1 PUSH1 0x1 ADD SWAP1 PUSH1 0x20 ADD DUP1 DUP4 GT PUSH2 0x7EC JUMPI DUP3 SWAP1 SUB PUSH1 0x1F AND DUP3 ADD SWAP2 JUMPDEST POP POP POP POP POP PUSH2 0x107E JUMP JUMPDEST JUMPDEST PUSH2 0x853 JUMPI PUSH1 0x40 MLOAD PUSH32 0x8C379A000000000000000000000000000000000000000000000000000000000 DUP2 MSTORE PUSH1 0x4 ADD PUSH2 0x84A SWAP1 PUSH2 0x1BAB JUMP JUMPDEST PUSH1 0x40 MLOAD DUP1 SWAP2 SUB SWAP1 REVERT JUMPDEST PUSH1 0x2 PUSH1 0x3 DUP4 PUSH1 0x40 MLOAD PUSH2 0x865 SWAP2 SWAP1 PUSH2 0x1AAF JUMP JUMPDEST SWAP1 DUP2 MSTORE PUSH1 0x20 ADD PUSH1 0x40 MLOAD DUP1 SWAP2 SUB SWAP1 KECCAK256 PUSH1 0x4 ADD PUSH1 0x0 PUSH2 0x100 EXP DUP2 SLOAD DUP2 PUSH1 0xFF MUL NOT AND SWAP1 DUP4 PUSH1 0x2 DUP2 GT ISZERO PUSH2 0x898 JUMPI PUSH2 0x897 PUSH2 0x1F4D JUMP JUMPDEST JUMPDEST MUL OR SWAP1 SSTORE POP PUSH1 0x0 PUSH1 0x3 DUP4 PUSH1 0x40 MLOAD PUSH2 0x8AF SWAP2 SWAP1 PUSH2 0x1AAF JUMP JUMPDEST SWAP1 DUP2 MSTORE PUSH1 0x20 ADD PUSH1 0x40 MLOAD DUP1 SWAP2 SUB SWAP1 KECCAK256 PUSH1 0x0 ADD PUSH1 0x0 SWAP1 SLOAD SWAP1 PUSH2 0x100 EXP SWAP1 DIV PUSH20 0xFFFFFFFFFFFFFFFFFFFFFFFFFFFFFFFFFFFFFFFF AND SWAP1 POP PUSH1 0x0 PUSH1 0x3 DUP5 PUSH1 0x40 MLOAD PUSH2 0x8F5 SWAP2 SWAP1 PUSH2 0x1AAF JUMP JUMPDEST SWAP1 DUP2 MSTORE PUSH1 0x20 ADD PUSH1 0x40 MLOAD DUP1 SWAP2 SUB SWAP1 KECCAK256 PUSH1 0x1 ADD PUSH1 0x0 SWAP1 SLOAD SWAP1 PUSH2 0x100 EXP SWAP1 DIV PUSH20 0xFFFFFFFFFFFFFFFFFFFFFFFFFFFFFFFFFFFFFFFF AND SWAP1 POP PUSH1 0x0 PUSH1 0x3 DUP6 PUSH1 0x40 MLOAD PUSH2 0x93B SWAP2 SWAP1 PUSH2 0x1AAF JUMP JUMPDEST SWAP1 DUP2 MSTORE PUSH1 0x20 ADD PUSH1 0x40 MLOAD DUP1 SWAP2 SUB SWAP1 KECCAK256 PUSH1 0x2 ADD SLOAD SWAP1 POP PUSH2 0xA18 DUP5 PUSH1 0x4 PUSH1 0x0 DUP1 PUSH1 0x2 DUP2 GT ISZERO PUSH2 0x96A JUMPI PUSH2 0x969 PUSH2 0x1F4D JUMP JUMPDEST JUMPDEST PUSH1 0x2 DUP2 GT ISZERO PUSH2 0x97C JUMPI PUSH2 0x97B PUSH2 0x1F4D JUMP JUMPDEST JUMPDEST DUP2 MSTORE PUSH1 0x20 ADD SWAP1 DUP2 MSTORE PUSH1 0x20 ADD PUSH1 0x0 KECCAK256 DUP1 SLOAD PUSH2 0x995 SWAP1 PUSH2 0x1EBB JUMP JUMPDEST DUP1 PUSH1 0x1F ADD PUSH1 0x20 DUP1 SWAP2 DIV MUL PUSH1 0x20 ADD PUSH1 0x40 MLOAD SWAP1 DUP2 ADD PUSH1 0x40 MSTORE DUP1 SWAP3 SWAP2 SWAP1 DUP2 DUP2 MSTORE PUSH1 0x20 ADD DUP3 DUP1 SLOAD PUSH2 0x9C1 SWAP1 PUSH2 0x1EBB JUMP JUMPDEST DUP1 ISZERO PUSH2 0xA0E JUMPI DUP1 PUSH1 0x1F LT PUSH2 0x9E3 JUMPI PUSH2 0x100 DUP1 DUP4 SLOAD DIV MUL DUP4 MSTORE SWAP2 PUSH1 0x20 ADD SWAP2 PUSH2 0xA0E JUMP JUMPDEST DUP3 ADD SWAP2 SWAP1 PUSH1 0x0 MSTORE PUSH1 0x20 PUSH1 0x0 KECCAK256 SWAP1 JUMPDEST DUP2 SLOAD DUP2 MSTORE SWAP1 PUSH1 0x1 ADD SWAP1 PUSH1 0x20 ADD DUP1 DUP4 GT PUSH2 0x9F1 JUMPI DUP3 SWAP1 SUB PUSH1 0x1F AND DUP3 ADD SWAP2 JUMPDEST POP POP POP POP POP PUSH2 0x107E JUMP JUMPDEST ISZERO PUSH2 0xB96 JUMPI PUSH1 0x0 PUSH1 0x3 DUP7 PUSH1 0x40 MLOAD PUSH2 0xA2F SWAP2 SWAP1 PUSH2 0x1AAF JUMP JUMPDEST SWAP1 DUP2 MSTORE PUSH1 0x20 ADD PUSH1 0x40 MLOAD DUP1 SWAP2 SUB SWAP1 KECCAK256 PUSH1 0x4 ADD PUSH1 0x1 PUSH2 0x100 EXP DUP2 SLOAD DUP2 PUSH1 0xFF MUL NOT AND SWAP1 DUP4 PUSH1 0x2 DUP2 GT ISZERO PUSH2 0xA62 JUMPI PUSH2 0xA61 PUSH2 0x1F4D JUMP JUMPDEST JUMPDEST MUL OR SWAP1 SSTORE POP PUSH2 0xAB9 DUP2 PUSH1 0x2 PUSH1 0x0 DUP7 PUSH20 0xFFFFFFFFFFFFFFFFFFFFFFFFFFFFFFFFFFFFFFFF AND PUSH20 0xFFFFFFFFFFFFFFFFFFFFFFFFFFFFFFFFFFFFFFFF AND DUP2 MSTORE PUSH1 0x20 ADD SWAP1 DUP2 MSTORE PUSH1 0x20 ADD PUSH1 0x0 KECCAK256 SLOAD PUSH2 0x15DA SWAP1 SWAP2 SWAP1 PUSH4 0xFFFFFFFF AND JUMP JUMPDEST PUSH1 0x2 PUSH1 0x0 DUP6 PUSH20 0xFFFFFFFFFFFFFFFFFFFFFFFFFFFFFFFFFFFFFFFF AND PUSH20 0xFFFFFFFFFFFFFFFFFFFFFFFFFFFFFFFFFFFFFFFF AND DUP2 MSTORE PUSH1 0x20 ADD SWAP1 DUP2 MSTORE PUSH1 0x20 ADD PUSH1 0x0 KECCAK256 DUP2 SWAP1 SSTORE POP PUSH2 0xB4E DUP2 PUSH1 0x2 PUSH1 0x0 DUP6 PUSH20 0xFFFFFFFFFFFFFFFFFFFFFFFFFFFFFFFFFFFFFFFF AND PUSH20 0xFFFFFFFFFFFFFFFFFFFFFFFFFFFFFFFFFFFFFFFF AND DUP2 MSTORE PUSH1 0x20 ADD SWAP1 DUP2 MSTORE PUSH1 0x20 ADD PUSH1 0x0 KECCAK256 SLOAD PUSH2 0x15DA SWAP1 SWAP2 SWAP1 PUSH4 0xFFFFFFFF AND JUMP JUMPDEST PUSH1 0x2 PUSH1 0x0 DUP5 PUSH20 0xFFFFFFFFFFFFFFFFFFFFFFFFFFFFFFFFFFFFFFFF AND PUSH20 0xFFFFFFFFFFFFFFFFFFFFFFFFFFFFFFFFFFFFFFFF AND DUP2 MSTORE PUSH1 0x20 ADD SWAP1 DUP2 MSTORE PUSH1 0x20 ADD PUSH1 0x0 KECCAK256 DUP2 SWAP1 SSTORE POP PUSH2 0xF2B JUMP JUMPDEST PUSH2 0xC60 DUP5 PUSH1 0x4 PUSH1 0x0 PUSH1 0x1 PUSH1 0x2 DUP2 GT ISZERO PUSH2 0xBB2 JUMPI PUSH2 0xBB1 PUSH2 0x1F4D JUMP JUMPDEST JUMPDEST PUSH1 0x2 DUP2 GT ISZERO PUSH2 0xBC4 JUMPI PUSH2 0xBC3 PUSH2 0x1F4D JUMP JUMPDEST JUMPDEST DUP2 MSTORE PUSH1 0x20 ADD SWAP1 DUP2 MSTORE PUSH1 0x20 ADD PUSH1 0x0 KECCAK256 DUP1 SLOAD PUSH2 0xBDD SWAP1 PUSH2 0x1EBB JUMP JUMPDEST DUP1 PUSH1 0x1F ADD PUSH1 0x20 DUP1 SWAP2 DIV MUL PUSH1 0x20 ADD PUSH1 0x40 MLOAD SWAP1 DUP2 ADD PUSH1 0x40 MSTORE DUP1 SWAP3 SWAP2 SWAP1 DUP2 DUP2 MSTORE PUSH1 0x20 ADD DUP3 DUP1 SLOAD PUSH2 0xC09 SWAP1 PUSH2 0x1EBB JUMP JUMPDEST DUP1 ISZERO PUSH2 0xC56 JUMPI DUP1 PUSH1 0x1F LT PUSH2 0xC2B JUMPI PUSH2 0x100 DUP1 DUP4 SLOAD DIV MUL DUP4 MSTORE SWAP2 PUSH1 0x20 ADD SWAP2 PUSH2 0xC56 JUMP JUMPDEST DUP3 ADD SWAP2 SWAP1 PUSH1 0x0 MSTORE PUSH1 0x20 PUSH1 0x0 KECCAK256 SWAP1 JUMPDEST DUP2 SLOAD DUP2 MSTORE SWAP1 PUSH1 0x1 ADD SWAP1 PUSH1 0x20 ADD DUP1 DUP4 GT PUSH2 0xC39 JUMPI DUP3 SWAP1 SUB PUSH1 0x1F AND DUP3 ADD SWAP2 JUMPDEST POP POP POP POP POP PUSH2 0x107E JUMP JUMPDEST ISZERO PUSH2 0xD62 JUMPI PUSH1 0x1 PUSH1 0x3 DUP7 PUSH1 0x40 MLOAD PUSH2 0xC77 SWAP2 SWAP1 PUSH2 0x1AAF JUMP JUMPDEST SWAP1 DUP2 MSTORE PUSH1 0x20 ADD PUSH1 0x40 MLOAD DUP1 SWAP2 SUB SWAP1 KECCAK256 PUSH1 0x4 ADD PUSH1 0x1 PUSH2 0x100 EXP DUP2 SLOAD DUP2 PUSH1 0xFF MUL NOT AND SWAP1 DUP4 PUSH1 0x2 DUP2 GT ISZERO PUSH2 0xCAA JUMPI PUSH2 0xCA9 PUSH2 0x1F4D JUMP JUMPDEST JUMPDEST MUL OR SWAP1 SSTORE POP PUSH1 0x0 PUSH2 0xCC5 PUSH1 0x2 DUP4 PUSH2 0x15F0 SWAP1 SWAP2 SWAP1 PUSH4 0xFFFFFFFF AND JUMP JUMPDEST SWAP1 POP PUSH2 0xD19 DUP2 PUSH1 0x2 PUSH1 0x0 DUP8 PUSH20 0xFFFFFFFFFFFFFFFFFFFFFFFFFFFFFFFFFFFFFFFF AND PUSH20 0xFFFFFFFFFFFFFFFFFFFFFFFFFFFFFFFFFFFFFFFF AND DUP2 MSTORE PUSH1 0x20 ADD SWAP1 DUP2 MSTORE PUSH1 0x20 ADD PUSH1 0x0 KECCAK256 SLOAD PUSH2 0x15DA SWAP1 SWAP2 SWAP1 PUSH4 0xFFFFFFFF AND JUMP JUMPDEST PUSH1 0x2 PUSH1 0x0 DUP7 PUSH20 0xFFFFFFFFFFFFFFFFFFFFFFFFFFFFFFFFFFFFFFFF AND PUSH20 0xFFFFFFFFFFFFFFFFFFFFFFFFFFFFFFFFFFFFFFFF AND DUP2 MSTORE PUSH1 0x20 ADD SWAP1 DUP2 MSTORE PUSH1 0x20 ADD PUSH1 0x0 KECCAK256 DUP2 SWAP1 SSTORE POP POP PUSH2 0xF2A JUMP JUMPDEST PUSH2 0xE2B DUP5 PUSH1 0x4 PUSH1 0x0 PUSH1 0x2 DUP1 DUP2 GT ISZERO PUSH2 0xD7D JUMPI PUSH2 0xD7C PUSH2 0x1F4D JUMP JUMPDEST JUMPDEST PUSH1 0x2 DUP2 GT ISZERO PUSH2 0xD8F JUMPI PUSH2 0xD8E PUSH2 0x1F4D JUMP JUMPDEST JUMPDEST DUP2 MSTORE PUSH1 0x20 ADD SWAP1 DUP2 MSTORE PUSH1 0x20 ADD PUSH1 0x0 KECCAK256 DUP1 SLOAD PUSH2 0xDA8 SWAP1 PUSH2 0x1EBB JUMP JUMPDEST DUP1 PUSH1 0x1F ADD PUSH1 0x20 DUP1 SWAP2 DIV MUL PUSH1 0x20 ADD PUSH1 0x40 MLOAD SWAP1 DUP2 ADD PUSH1 0x40 MSTORE DUP1 SWAP3 SWAP2 SWAP1 DUP2 DUP2 MSTORE PUSH1 0x20 ADD DUP3 DUP1 SLOAD PUSH2 0xDD4 SWAP1 PUSH2 0x1EBB JUMP JUMPDEST DUP1 ISZERO PUSH2 0xE21 JUMPI DUP1 PUSH1 0x1F LT PUSH2 0xDF6 JUMPI PUSH2 0x100 DUP1 DUP4 SLOAD DIV MUL DUP4 MSTORE SWAP2 PUSH1 0x20 ADD SWAP2 PUSH2 0xE21 JUMP JUMPDEST DUP3 ADD SWAP2 SWAP1 PUSH1 0x0 MSTORE PUSH1 0x20 PUSH1 0x0 KECCAK256 SWAP1 JUMPDEST DUP2 SLOAD DUP2 MSTORE SWAP1 PUSH1 0x1 ADD SWAP1 PUSH1 0x20 ADD DUP1 DUP4 GT PUSH2 0xE04 JUMPI DUP3 SWAP1 SUB PUSH1 0x1F AND DUP3 ADD SWAP2 JUMPDEST POP POP POP POP POP PUSH2 0x107E JUMP JUMPDEST ISZERO PUSH2 0xF29 JUMPI PUSH1 0x2 PUSH1 0x3 DUP7 PUSH1 0x40 MLOAD PUSH2 0xE42 SWAP2 SWAP1 PUSH2 0x1AAF JUMP JUMPDEST SWAP1 DUP2 MSTORE PUSH1 0x20 ADD PUSH1 0x40 MLOAD DUP1 SWAP2 SUB SWAP1 KECCAK256 PUSH1 0x4 ADD PUSH1 0x1 PUSH2 0x100 EXP DUP2 SLOAD DUP2 PUSH1 0xFF MUL NOT AND SWAP1 DUP4 PUSH1 0x2 DUP2 GT ISZERO PUSH2 0xE75 JUMPI PUSH2 0xE74 PUSH2 0x1F4D JUMP JUMPDEST JUMPDEST MUL OR SWAP1 SSTORE POP PUSH1 0x0 PUSH2 0xE90 PUSH1 0x2 DUP4 PUSH2 0x15F0 SWAP1 SWAP2 SWAP1 PUSH4 0xFFFFFFFF AND JUMP JUMPDEST SWAP1 POP PUSH2 0xEE4 DUP2 PUSH1 0x2 PUSH1 0x0 DUP7 PUSH20 0xFFFFFFFFFFFFFFFFFFFFFFFFFFFFFFFFFFFFFFFF AND PUSH20 0xFFFFFFFFFFFFFFFFFFFFFFFFFFFFFFFFFFFFFFFF AND DUP2 MSTORE PUSH1 0x20 ADD SWAP1 DUP2 MSTORE PUSH1 0x20 ADD PUSH1 0x0 KECCAK256 SLOAD PUSH2 0x15DA SWAP1 SWAP2 SWAP1 PUSH4 0xFFFFFFFF AND JUMP JUMPDEST PUSH1 0x2 PUSH1 0x0 DUP6 PUSH20 0xFFFFFFFFFFFFFFFFFFFFFFFFFFFFFFFFFFFFFFFF AND PUSH20 0xFFFFFFFFFFFFFFFFFFFFFFFFFFFFFFFFFFFFFFFF AND DUP2 MSTORE PUSH1 0x20 ADD SWAP1 DUP2 MSTORE PUSH1 0x20 ADD PUSH1 0x0 KECCAK256 DUP2 SWAP1 SSTORE POP POP JUMPDEST JUMPDEST JUMPDEST POP POP POP POP POP JUMP JUMPDEST PUSH1 0x3 DUP2 DUP1 MLOAD PUSH1 0x20 DUP2 ADD DUP3 ADD DUP1 MLOAD DUP5 DUP3 MSTORE PUSH1 0x20 DUP4 ADD PUSH1 0x20 DUP6 ADD KECCAK256 DUP2 DUP4 MSTORE DUP1 SWAP6 POP POP POP POP POP POP PUSH1 0x0 SWAP2 POP SWAP1 POP DUP1 PUSH1 0x0 ADD PUSH1 0x0 SWAP1 SLOAD SWAP1 PUSH2 0x100 EXP SWAP1 DIV PUSH20 0xFFFFFFFFFFFFFFFFFFFFFFFFFFFFFFFFFFFFFFFF AND SWAP1 DUP1 PUSH1 0x1 ADD PUSH1 0x0 SWAP1 SLOAD SWAP1 PUSH2 0x100 EXP SWAP1 DIV PUSH20 0xFFFFFFFFFFFFFFFFFFFFFFFFFFFFFFFFFFFFFFFF AND SWAP1 DUP1 PUSH1 0x2 ADD SLOAD SWAP1 DUP1 PUSH1 0x3 ADD DUP1 SLOAD PUSH2 0xFBD SWAP1 PUSH2 0x1EBB JUMP JUMPDEST DUP1 PUSH1 0x1F ADD PUSH1 0x20 DUP1 SWAP2 DIV MUL PUSH1 0x20 ADD PUSH1 0x40 MLOAD SWAP1 DUP2 ADD PUSH1 0x40 MSTORE DUP1 SWAP3 SWAP2 SWAP1 DUP2 DUP2 MSTORE PUSH1 0x20 ADD DUP3 DUP1 SLOAD PUSH2 0xFE9 SWAP1 PUSH2 0x1EBB JUMP JUMPDEST DUP1 ISZERO PUSH2 0x1036 JUMPI DUP1 PUSH1 0x1F LT PUSH2 0x100B JUMPI PUSH2 0x100 DUP1 DUP4 SLOAD DIV MUL DUP4 MSTORE SWAP2 PUSH1 0x20 ADD SWAP2 PUSH2 0x1036 JUMP JUMPDEST DUP3 ADD SWAP2 SWAP1 PUSH1 0x0 MSTORE PUSH1 0x20 PUSH1 0x0 KECCAK256 SWAP1 JUMPDEST DUP2 SLOAD DUP2 MSTORE SWAP1 PUSH1 0x1 ADD SWAP1 PUSH1 0x20 ADD DUP1 DUP4 GT PUSH2 0x1019 JUMPI DUP3 SWAP1 SUB PUSH1 0x1F AND DUP3 ADD SWAP2 JUMPDEST POP POP POP POP POP SWAP1 DUP1 PUSH1 0x4 ADD PUSH1 0x0 SWAP1 SLOAD SWAP1 PUSH2 0x100 EXP SWAP1 DIV PUSH1 0xFF AND SWAP1 DUP1 PUSH1 0x4 ADD PUSH1 0x1 SWAP1 SLOAD SWAP1 PUSH2 0x100 EXP SWAP1 DIV PUSH1 0xFF AND SWAP1 POP DUP7 JUMP JUMPDEST PUSH1 0x2 PUSH1 0x20 MSTORE DUP1 PUSH1 0x0 MSTORE PUSH1 0x40 PUSH1 0x0 KECCAK256 PUSH1 0x0 SWAP2 POP SWAP1 POP SLOAD DUP2 JUMP JUMPDEST PUSH1 0x0 DUP2 PUSH1 0x40 MLOAD PUSH1 0x20 ADD PUSH2 0x1091 SWAP2 SWAP1 PUSH2 0x1AAF JUMP JUMPDEST PUSH1 0x40 MLOAD PUSH1 0x20 DUP2 DUP4 SUB SUB DUP2 MSTORE SWAP1 PUSH1 0x40 MSTORE DUP1 MLOAD SWAP1 PUSH1 0x20 ADD KECCAK256 DUP4 PUSH1 0x40 MLOAD PUSH1 0x20 ADD PUSH2 0x10B8 SWAP2 SWAP1 PUSH2 0x1AAF JUMP JUMPDEST PUSH1 0x40 MLOAD PUSH1 0x20 DUP2 DUP4 SUB SUB DUP2 MSTORE SWAP1 PUSH1 0x40 MSTORE DUP1 MLOAD SWAP1 PUSH1 0x20 ADD KECCAK256 EQ SWAP1 POP SWAP3 SWAP2 POP POP JUMP JUMPDEST PUSH1 0x0 CALLVALUE GT PUSH2 0x111A JUMPI PUSH1 0x40 MLOAD PUSH32 0x8C379A000000000000000000000000000000000000000000000000000000000 DUP2 MSTORE PUSH1 0x4 ADD PUSH2 0x1111 SWAP1 PUSH2 0x1B6B JUMP JUMPDEST PUSH1 0x40 MLOAD DUP1 SWAP2 SUB SWAP1 REVERT JUMPDEST PUSH2 0x116C CALLVALUE PUSH1 0x2 PUSH1 0x0 CALLER PUSH20 0xFFFFFFFFFFFFFFFFFFFFFFFFFFFFFFFFFFFFFFFF AND PUSH20 0xFFFFFFFFFFFFFFFFFFFFFFFFFFFFFFFFFFFFFFFF AND DUP2 MSTORE PUSH1 0x20 ADD SWAP1 DUP2 MSTORE PUSH1 0x20 ADD PUSH1 0x0 KECCAK256 SLOAD PUSH2 0x15DA SWAP1 SWAP2 SWAP1 PUSH4 0xFFFFFFFF AND JUMP JUMPDEST PUSH1 0x2 PUSH1 0x0 CALLER PUSH20 0xFFFFFFFFFFFFFFFFFFFFFFFFFFFFFFFFFFFFFFFF AND PUSH20 0xFFFFFFFFFFFFFFFFFFFFFFFFFFFFFFFFFFFFFFFF AND DUP2 MSTORE PUSH1 0x20 ADD SWAP1 DUP2 MSTORE PUSH1 0x20 ADD PUSH1 0x0 KECCAK256 DUP2 SWAP1 SSTORE POP JUMP JUMPDEST PUSH1 0x4 PUSH1 0x20 MSTORE DUP1 PUSH1 0x0 MSTORE PUSH1 0x40 PUSH1 0x0 KECCAK256 PUSH1 0x0 SWAP2 POP SWAP1 POP DUP1 SLOAD PUSH2 0x11D0 SWAP1 PUSH2 0x1EBB JUMP JUMPDEST DUP1 PUSH1 0x1F ADD PUSH1 0x20 DUP1 SWAP2 DIV MUL PUSH1 0x20 ADD PUSH1 0x40 MLOAD SWAP1 DUP2 ADD PUSH1 0x40 MSTORE DUP1 SWAP3 SWAP2 SWAP1 DUP2 DUP2 MSTORE PUSH1 0x20 ADD DUP3 DUP1 SLOAD PUSH2 0x11FC SWAP1 PUSH2 0x1EBB JUMP JUMPDEST DUP1 ISZERO PUSH2 0x1249 JUMPI DUP1 PUSH1 0x1F LT PUSH2 0x121E JUMPI PUSH2 0x100 DUP1 DUP4 SLOAD DIV MUL DUP4 MSTORE SWAP2 PUSH1 0x20 ADD SWAP2 PUSH2 0x1249 JUMP JUMPDEST DUP3 ADD SWAP2 SWAP1 PUSH1 0x0 MSTORE PUSH1 0x20 PUSH1 0x0 KECCAK256 SWAP1 JUMPDEST DUP2 SLOAD DUP2 MSTORE SWAP1 PUSH1 0x1 ADD SWAP1 PUSH1 0x20 ADD DUP1 DUP4 GT PUSH2 0x122C JUMPI DUP3 SWAP1 SUB PUSH1 0x1F AND DUP3 ADD SWAP2 JUMPDEST POP POP POP POP POP DUP2 JUMP JUMPDEST PUSH1 0x0 PUSH1 0x2 PUSH1 0x0 DUP4 PUSH20 0xFFFFFFFFFFFFFFFFFFFFFFFFFFFFFFFFFFFFFFFF AND PUSH20 0xFFFFFFFFFFFFFFFFFFFFFFFFFFFFFFFFFFFFFFFF AND DUP2 MSTORE PUSH1 0x20 ADD SWAP1 DUP2 MSTORE PUSH1 0x20 ADD PUSH1 0x0 KECCAK256 SLOAD SWAP1 POP SWAP2 SWAP1 POP JUMP JUMPDEST PUSH1 0x0 PUSH20 0xFFFFFFFFFFFFFFFFFFFFFFFFFFFFFFFFFFFFFFFF AND DUP3 PUSH20 0xFFFFFFFFFFFFFFFFFFFFFFFFFFFFFFFFFFFFFFFF AND EQ ISZERO DUP1 ISZERO PUSH2 0x1303 JUMPI POP CALLER PUSH20 0xFFFFFFFFFFFFFFFFFFFFFFFFFFFFFFFFFFFFFFFF AND DUP3 PUSH20 0xFFFFFFFFFFFFFFFFFFFFFFFFFFFFFFFFFFFFFFFF AND EQ ISZERO JUMPDEST PUSH2 0x1342 JUMPI PUSH1 0x40 MLOAD PUSH32 0x8C379A000000000000000000000000000000000000000000000000000000000 DUP2 MSTORE PUSH1 0x4 ADD PUSH2 0x1339 SWAP1 PUSH2 0x1B8B JUMP JUMPDEST PUSH1 0x40 MLOAD DUP1 SWAP2 SUB SWAP1 REVERT JUMPDEST PUSH1 0x2 PUSH1 0x0 CALLER PUSH20 0xFFFFFFFFFFFFFFFFFFFFFFFFFFFFFFFFFFFFFFFF AND PUSH20 0xFFFFFFFFFFFFFFFFFFFFFFFFFFFFFFFFFFFFFFFF AND DUP2 MSTORE PUSH1 0x20 ADD SWAP1 DUP2 MSTORE PUSH1 0x20 ADD PUSH1 0x0 KECCAK256 SLOAD DUP2 GT ISZERO PUSH2 0x13C4 JUMPI PUSH1 0x40 MLOAD PUSH32 0x8C379A000000000000000000000000000000000000000000000000000000000 DUP2 MSTORE PUSH1 0x4 ADD PUSH2 0x13BB SWAP1 PUSH2 0x1BCB JUMP JUMPDEST PUSH1 0x40 MLOAD DUP1 SWAP2 SUB SWAP1 REVERT JUMPDEST PUSH2 0x1416 DUP2 PUSH1 0x2 PUSH1 0x0 CALLER PUSH20 0xFFFFFFFFFFFFFFFFFFFFFFFFFFFFFFFFFFFFFFFF AND PUSH20 0xFFFFFFFFFFFFFFFFFFFFFFFFFFFFFFFFFFFFFFFF AND DUP2 MSTORE PUSH1 0x20 ADD SWAP1 DUP2 MSTORE PUSH1 0x20 ADD PUSH1 0x0 KECCAK256 SLOAD PUSH2 0x15C4 SWAP1 SWAP2 SWAP1 PUSH4 0xFFFFFFFF AND JUMP JUMPDEST PUSH1 0x2 PUSH1 0x0 CALLER PUSH20 0xFFFFFFFFFFFFFFFFFFFFFFFFFFFFFFFFFFFFFFFF AND PUSH20 0xFFFFFFFFFFFFFFFFFFFFFFFFFFFFFFFFFFFFFFFF AND DUP2 MSTORE PUSH1 0x20 ADD SWAP1 DUP2 MSTORE PUSH1 0x20 ADD PUSH1 0x0 KECCAK256 DUP2 SWAP1 SSTORE POP DUP3 PUSH1 0x3 DUP5 PUSH1 0x40 MLOAD PUSH2 0x146A SWAP2 SWAP1 PUSH2 0x1AAF JUMP JUMPDEST SWAP1 DUP2 MSTORE PUSH1 0x20 ADD PUSH1 0x40 MLOAD DUP1 SWAP2 SUB SWAP1 KECCAK256 PUSH1 0x3 ADD SWAP1 DUP1 MLOAD SWAP1 PUSH1 0x20 ADD SWAP1 PUSH2 0x148E SWAP3 SWAP2 SWAP1 PUSH2 0x1606 JUMP JUMPDEST POP CALLER PUSH1 0x3 DUP5 PUSH1 0x40 MLOAD PUSH2 0x14A0 SWAP2 SWAP1 PUSH2 0x1AAF JUMP JUMPDEST SWAP1 DUP2 MSTORE PUSH1 0x20 ADD PUSH1 0x40 MLOAD DUP1 SWAP2 SUB SWAP1 KECCAK256 PUSH1 0x0 ADD PUSH1 0x0 PUSH2 0x100 EXP DUP2 SLOAD DUP2 PUSH20 0xFFFFFFFFFFFFFFFFFFFFFFFFFFFFFFFFFFFFFFFF MUL NOT AND SWAP1 DUP4 PUSH20 0xFFFFFFFFFFFFFFFFFFFFFFFFFFFFFFFFFFFFFFFF AND MUL OR SWAP1 SSTORE POP DUP2 PUSH1 0x3 DUP5 PUSH1 0x40 MLOAD PUSH2 0x1500 SWAP2 SWAP1 PUSH2 0x1AAF JUMP JUMPDEST SWAP1 DUP2 MSTORE PUSH1 0x20 ADD PUSH1 0x40 MLOAD DUP1 SWAP2 SUB SWAP1 KECCAK256 PUSH1 0x1 ADD PUSH1 0x0 PUSH2 0x100 EXP DUP2 SLOAD DUP2 PUSH20 0xFFFFFFFFFFFFFFFFFFFFFFFFFFFFFFFFFFFFFFFF MUL NOT AND SWAP1 DUP4 PUSH20 0xFFFFFFFFFFFFFFFFFFFFFFFFFFFFFFFFFFFFFFFF AND MUL OR SWAP1 SSTORE POP DUP1 PUSH1 0x3 DUP5 PUSH1 0x40 MLOAD PUSH2 0x1560 SWAP2 SWAP1 PUSH2 0x1AAF JUMP JUMPDEST SWAP1 DUP2 MSTORE PUSH1 0x20 ADD PUSH1 0x40 MLOAD DUP1 SWAP2 SUB SWAP1 KECCAK256 PUSH1 0x2 ADD DUP2 SWAP1 SSTORE POP PUSH1 0x0 PUSH1 0x3 DUP5 PUSH1 0x40 MLOAD PUSH2 0x1587 SWAP2 SWAP1 PUSH2 0x1AAF JUMP JUMPDEST SWAP1 DUP2 MSTORE PUSH1 0x20 ADD PUSH1 0x40 MLOAD DUP1 SWAP2 SUB SWAP1 KECCAK256 PUSH1 0x4 ADD PUSH1 0x0 PUSH2 0x100 EXP DUP2 SLOAD DUP2 PUSH1 0xFF MUL NOT AND SWAP1 DUP4 PUSH1 0x2 DUP2 GT ISZERO PUSH2 0x15BA JUMPI PUSH2 0x15B9 PUSH2 0x1F4D JUMP JUMPDEST JUMPDEST MUL OR SWAP1 SSTORE POP POP POP POP JUMP JUMPDEST PUSH1 0x0 DUP2 DUP4 PUSH2 0x15D2 SWAP2 SWAP1 PUSH2 0x1DB3 JUMP JUMPDEST SWAP1 POP SWAP3 SWAP2 POP POP JUMP JUMPDEST PUSH1 0x0 DUP2 DUP4 PUSH2 0x15E8 SWAP2 SWAP1 PUSH2 0x1D03 JUMP JUMPDEST SWAP1 POP SWAP3 SWAP2 POP POP JUMP JUMPDEST PUSH1 0x0 DUP2 DUP4 PUSH2 0x15FE SWAP2 SWAP1 PUSH2 0x1D59 JUMP JUMPDEST SWAP1 POP SWAP3 SWAP2 POP POP JUMP JUMPDEST DUP3 DUP1 SLOAD PUSH2 0x1612 SWAP1 PUSH2 0x1EBB JUMP JUMPDEST SWAP1 PUSH1 0x0 MSTORE PUSH1 0x20 PUSH1 0x0 KECCAK256 SWAP1 PUSH1 0x1F ADD PUSH1 0x20 SWAP1 DIV DUP2 ADD SWAP3 DUP3 PUSH2 0x1634 JUMPI PUSH1 0x0 DUP6 SSTORE PUSH2 0x167B JUMP JUMPDEST DUP3 PUSH1 0x1F LT PUSH2 0x164D JUMPI DUP1 MLOAD PUSH1 0xFF NOT AND DUP4 DUP1 ADD OR DUP6 SSTORE PUSH2 0x167B JUMP JUMPDEST DUP3 DUP1 ADD PUSH1 0x1 ADD DUP6 SSTORE DUP3 ISZERO PUSH2 0x167B JUMPI SWAP2 DUP3 ADD JUMPDEST DUP3 DUP2 GT ISZERO PUSH2 0x167A JUMPI DUP3 MLOAD DUP3 SSTORE SWAP2 PUSH1 0x20 ADD SWAP2 SWAP1 PUSH1 0x1 ADD SWAP1 PUSH2 0x165F JUMP JUMPDEST JUMPDEST POP SWAP1 POP PUSH2 0x1688 SWAP2 SWAP1 PUSH2 0x168C JUMP JUMPDEST POP SWAP1 JUMP JUMPDEST JUMPDEST DUP1 DUP3 GT ISZERO PUSH2 0x16A5 JUMPI PUSH1 0x0 DUP2 PUSH1 0x0 SWAP1 SSTORE POP PUSH1 0x1 ADD PUSH2 0x168D JUMP JUMPDEST POP SWAP1 JUMP JUMPDEST PUSH1 0x0 PUSH2 0x16BC PUSH2 0x16B7 DUP5 PUSH2 0x1CAB JUMP JUMPDEST PUSH2 0x1C86 JUMP JUMPDEST SWAP1 POP DUP3 DUP2 MSTORE PUSH1 0x20 DUP2 ADD DUP5 DUP5 DUP5 ADD GT ISZERO PUSH2 0x16D8 JUMPI PUSH2 0x16D7 PUSH2 0x1FDF JUMP JUMPDEST JUMPDEST PUSH2 0x16E3 DUP5 DUP3 DUP6 PUSH2 0x1E79 JUMP JUMPDEST POP SWAP4 SWAP3 POP POP POP JUMP JUMPDEST PUSH1 0x0 DUP2 CALLDATALOAD SWAP1 POP PUSH2 0x16FA DUP2 PUSH2 0x2207 JUMP JUMPDEST SWAP3 SWAP2 POP POP JUMP JUMPDEST PUSH1 0x0 DUP2 CALLDATALOAD SWAP1 POP PUSH2 0x170F DUP2 PUSH2 0x221E JUMP JUMPDEST SWAP3 SWAP2 POP POP JUMP JUMPDEST PUSH1 0x0 DUP3 PUSH1 0x1F DUP4 ADD SLT PUSH2 0x172A JUMPI PUSH2 0x1729 PUSH2 0x1FDA JUMP JUMPDEST JUMPDEST DUP2 CALLDATALOAD PUSH2 0x173A DUP5 DUP3 PUSH1 0x20 DUP7 ADD PUSH2 0x16A9 JUMP JUMPDEST SWAP2 POP POP SWAP3 SWAP2 POP POP JUMP JUMPDEST PUSH1 0x0 DUP2 CALLDATALOAD SWAP1 POP PUSH2 0x1752 DUP2 PUSH2 0x222E JUMP JUMPDEST SWAP3 SWAP2 POP POP JUMP JUMPDEST PUSH1 0x0 PUSH1 0x20 DUP3 DUP5 SUB SLT ISZERO PUSH2 0x176E JUMPI PUSH2 0x176D PUSH2 0x1FE9 JUMP JUMPDEST JUMPDEST PUSH1 0x0 PUSH2 0x177C DUP5 DUP3 DUP6 ADD PUSH2 0x16EB JUMP JUMPDEST SWAP2 POP POP SWAP3 SWAP2 POP POP JUMP JUMPDEST PUSH1 0x0 PUSH1 0x20 DUP3 DUP5 SUB SLT ISZERO PUSH2 0x179B JUMPI PUSH2 0x179A PUSH2 0x1FE9 JUMP JUMPDEST JUMPDEST PUSH1 0x0 PUSH2 0x17A9 DUP5 DUP3 DUP6 ADD PUSH2 0x1700 JUMP JUMPDEST SWAP2 POP POP SWAP3 SWAP2 POP POP JUMP JUMPDEST PUSH1 0x0 PUSH1 0x20 DUP3 DUP5 SUB SLT ISZERO PUSH2 0x17C8 JUMPI PUSH2 0x17C7 PUSH2 0x1FE9 JUMP JUMPDEST JUMPDEST PUSH1 0x0 DUP3 ADD CALLDATALOAD PUSH8 0xFFFFFFFFFFFFFFFF DUP2 GT ISZERO PUSH2 0x17E6 JUMPI PUSH2 0x17E5 PUSH2 0x1FE4 JUMP JUMPDEST JUMPDEST PUSH2 0x17F2 DUP5 DUP3 DUP6 ADD PUSH2 0x1715 JUMP JUMPDEST SWAP2 POP POP SWAP3 SWAP2 POP POP JUMP JUMPDEST PUSH1 0x0 DUP1 PUSH1 0x0 PUSH1 0x60 DUP5 DUP7 SUB SLT ISZERO PUSH2 0x1814 JUMPI PUSH2 0x1813 PUSH2 0x1FE9 JUMP JUMPDEST JUMPDEST PUSH1 0x0 DUP5 ADD CALLDATALOAD PUSH8 0xFFFFFFFFFFFFFFFF DUP2 GT ISZERO PUSH2 0x1832 JUMPI PUSH2 0x1831 PUSH2 0x1FE4 JUMP JUMPDEST JUMPDEST PUSH2 0x183E DUP7 DUP3 DUP8 ADD PUSH2 0x1715 JUMP JUMPDEST SWAP4 POP POP PUSH1 0x20 PUSH2 0x184F DUP7 DUP3 DUP8 ADD PUSH2 0x16EB JUMP JUMPDEST SWAP3 POP POP PUSH1 0x40 PUSH2 0x1860 DUP7 DUP3 DUP8 ADD PUSH2 0x1743 JUMP JUMPDEST SWAP2 POP POP SWAP3 POP SWAP3 POP SWAP3 JUMP JUMPDEST PUSH1 0x0 DUP1 PUSH1 0x40 DUP4 DUP6 SUB SLT ISZERO PUSH2 0x1881 JUMPI PUSH2 0x1880 PUSH2 0x1FE9 JUMP JUMPDEST JUMPDEST PUSH1 0x0 DUP4 ADD CALLDATALOAD PUSH8 0xFFFFFFFFFFFFFFFF DUP2 GT ISZERO PUSH2 0x189F JUMPI PUSH2 0x189E PUSH2 0x1FE4 JUMP JUMPDEST JUMPDEST PUSH2 0x18AB DUP6 DUP3 DUP7 ADD PUSH2 0x1715 JUMP JUMPDEST SWAP3 POP POP PUSH1 0x20 DUP4 ADD CALLDATALOAD PUSH8 0xFFFFFFFFFFFFFFFF DUP2 GT ISZERO PUSH2 0x18CC JUMPI PUSH2 0x18CB PUSH2 0x1FE4 JUMP JUMPDEST JUMPDEST PUSH2 0x18D8 DUP6 DUP3 DUP7 ADD PUSH2 0x1715 JUMP JUMPDEST SWAP2 POP POP SWAP3 POP SWAP3 SWAP1 POP JUMP JUMPDEST PUSH2 0x18EB DUP2 PUSH2 0x1DE7 JUMP JUMPDEST DUP3 MSTORE POP POP JUMP JUMPDEST PUSH2 0x18FA DUP2 PUSH2 0x1DF9 JUMP JUMPDEST DUP3 MSTORE POP POP JUMP JUMPDEST PUSH2 0x1909 DUP2 PUSH2 0x1E55 JUMP JUMPDEST DUP3 MSTORE POP POP JUMP JUMPDEST PUSH2 0x1918 DUP2 PUSH2 0x1E67 JUMP JUMPDEST DUP3 MSTORE POP POP JUMP JUMPDEST PUSH1 0x0 PUSH2 0x1929 DUP3 PUSH2 0x1CDC JUMP JUMPDEST PUSH2 0x1933 DUP2 DUP6 PUSH2 0x1CE7 JUMP JUMPDEST SWAP4 POP PUSH2 0x1943 DUP2 DUP6 PUSH1 0x20 DUP7 ADD PUSH2 0x1E88 JUMP JUMPDEST PUSH2 0x194C DUP2 PUSH2 0x1FEE JUMP JUMPDEST DUP5 ADD SWAP2 POP POP SWAP3 SWAP2 POP POP JUMP JUMPDEST PUSH1 0x0 PUSH2 0x1962 DUP3 PUSH2 0x1CDC JUMP JUMPDEST PUSH2 0x196C DUP2 DUP6 PUSH2 0x1CF8 JUMP JUMPDEST SWAP4 POP PUSH2 0x197C DUP2 DUP6 PUSH1 0x20 DUP7 ADD PUSH2 0x1E88 JUMP JUMPDEST DUP1 DUP5 ADD SWAP2 POP POP SWAP3 SWAP2 POP POP JUMP JUMPDEST PUSH1 0x0 PUSH2 0x1995 PUSH1 0x2F DUP4 PUSH2 0x1CE7 JUMP JUMPDEST SWAP2 POP PUSH2 0x19A0 DUP3 PUSH2 0x1FFF JUMP JUMPDEST PUSH1 0x40 DUP3 ADD SWAP1 POP SWAP2 SWAP1 POP JUMP JUMPDEST PUSH1 0x0 PUSH2 0x19B8 PUSH1 0x1E DUP4 PUSH2 0x1CE7 JUMP JUMPDEST SWAP2 POP PUSH2 0x19C3 DUP3 PUSH2 0x204E JUMP JUMPDEST PUSH1 0x20 DUP3 ADD SWAP1 POP SWAP2 SWAP1 POP JUMP JUMPDEST PUSH1 0x0 PUSH2 0x19DB PUSH1 0xE DUP4 PUSH2 0x1CE7 JUMP JUMPDEST SWAP2 POP PUSH2 0x19E6 DUP3 PUSH2 0x2077 JUMP JUMPDEST PUSH1 0x20 DUP3 ADD SWAP1 POP SWAP2 SWAP1 POP JUMP JUMPDEST PUSH1 0x0 PUSH2 0x19FE PUSH1 0x1E DUP4 PUSH2 0x1CE7 JUMP JUMPDEST SWAP2 POP PUSH2 0x1A09 DUP3 PUSH2 0x20A0 JUMP JUMPDEST PUSH1 0x20 DUP3 ADD SWAP1 POP SWAP2 SWAP1 POP JUMP JUMPDEST PUSH1 0x0 PUSH2 0x1A21 PUSH1 0x34 DUP4 PUSH2 0x1CE7 JUMP JUMPDEST SWAP2 POP PUSH2 0x1A2C DUP3 PUSH2 0x20C9 JUMP JUMPDEST PUSH1 0x40 DUP3 ADD SWAP1 POP SWAP2 SWAP1 POP JUMP JUMPDEST PUSH1 0x0 PUSH2 0x1A44 PUSH1 0x1D DUP4 PUSH2 0x1CE7 JUMP JUMPDEST SWAP2 POP PUSH2 0x1A4F DUP3 PUSH2 0x2118 JUMP JUMPDEST PUSH1 0x20 DUP3 ADD SWAP1 POP SWAP2 SWAP1 POP JUMP JUMPDEST PUSH1 0x0 PUSH2 0x1A67 PUSH1 0x25 DUP4 PUSH2 0x1CE7 JUMP JUMPDEST SWAP2 POP PUSH2 0x1A72 DUP3 PUSH2 0x2141 JUMP JUMPDEST PUSH1 0x40 DUP3 ADD SWAP1 POP SWAP2 SWAP1 POP JUMP JUMPDEST PUSH1 0x0 PUSH2 0x1A8A PUSH1 0x22 DUP4 PUSH2 0x1CE7 JUMP JUMPDEST SWAP2 POP PUSH2 0x1A95 DUP3 PUSH2 0x2190 JUMP JUMPDEST PUSH1 0x40 DUP3 ADD SWAP1 POP SWAP2 SWAP1 POP JUMP JUMPDEST PUSH2 0x1AA9 DUP2 PUSH2 0x1E4B JUMP JUMPDEST DUP3 MSTORE POP POP JUMP JUMPDEST PUSH1 0x0 PUSH2 0x1ABB DUP3 DUP5 PUSH2 0x1957 JUMP JUMPDEST SWAP2 POP DUP2 SWAP1 POP SWAP3 SWAP2 POP POP JUMP JUMPDEST PUSH1 0x0 PUSH1 0xC0 DUP3 ADD SWAP1 POP PUSH2 0x1ADB PUSH1 0x0 DUP4 ADD DUP10 PUSH2 0x18E2 JUMP JUMPDEST PUSH2 0x1AE8 PUSH1 0x20 DUP4 ADD DUP9 PUSH2 0x18E2 JUMP JUMPDEST PUSH2 0x1AF5 PUSH1 0x40 DUP4 ADD DUP8 PUSH2 0x1AA0 JUMP JUMPDEST DUP2 DUP2 SUB PUSH1 0x60 DUP4 ADD MSTORE PUSH2 0x1B07 DUP2 DUP7 PUSH2 0x191E JUMP JUMPDEST SWAP1 POP PUSH2 0x1B16 PUSH1 0x80 DUP4 ADD DUP6 PUSH2 0x190F JUMP JUMPDEST PUSH2 0x1B23 PUSH1 0xA0 DUP4 ADD DUP5 PUSH2 0x1900 JUMP JUMPDEST SWAP8 SWAP7 POP POP POP POP POP POP POP JUMP JUMPDEST PUSH1 0x0 PUSH1 0x20 DUP3 ADD SWAP1 POP PUSH2 0x1B43 PUSH1 0x0 DUP4 ADD DUP5 PUSH2 0x18F1 JUMP JUMPDEST SWAP3 SWAP2 POP POP JUMP JUMPDEST PUSH1 0x0 PUSH1 0x20 DUP3 ADD SWAP1 POP DUP2 DUP2 SUB PUSH1 0x0 DUP4 ADD MSTORE PUSH2 0x1B63 DUP2 DUP5 PUSH2 0x191E JUMP JUMPDEST SWAP1 POP SWAP3 SWAP2 POP POP JUMP JUMPDEST PUSH1 0x0 PUSH1 0x20 DUP3 ADD SWAP1 POP DUP2 DUP2 SUB PUSH1 0x0 DUP4 ADD MSTORE PUSH2 0x1B84 DUP2 PUSH2 0x1988 JUMP JUMPDEST SWAP1 POP SWAP2 SWAP1 POP JUMP JUMPDEST PUSH1 0x0 PUSH1 0x20 DUP3 ADD SWAP1 POP DUP2 DUP2 SUB PUSH1 0x0 DUP4 ADD MSTORE PUSH2 0x1BA4 DUP2 PUSH2 0x19AB JUMP JUMPDEST SWAP1 POP SWAP2 SWAP1 POP JUMP JUMPDEST PUSH1 0x0 PUSH1 0x20 DUP3 ADD SWAP1 POP DUP2 DUP2 SUB PUSH1 0x0 DUP4 ADD MSTORE PUSH2 0x1BC4 DUP2 PUSH2 0x19CE JUMP JUMPDEST SWAP1 POP SWAP2 SWAP1 POP JUMP JUMPDEST PUSH1 0x0 PUSH1 0x20 DUP3 ADD SWAP1 POP DUP2 DUP2 SUB PUSH1 0x0 DUP4 ADD MSTORE PUSH2 0x1BE4 DUP2 PUSH2 0x19F1 JUMP JUMPDEST SWAP1 POP SWAP2 SWAP1 POP JUMP JUMPDEST PUSH1 0x0 PUSH1 0x20 DUP3 ADD SWAP1 POP DUP2 DUP2 SUB PUSH1 0x0 DUP4 ADD MSTORE PUSH2 0x1C04 DUP2 PUSH2 0x1A14 JUMP JUMPDEST SWAP1 POP SWAP2 SWAP1 POP JUMP JUMPDEST PUSH1 0x0 PUSH1 0x20 DUP3 ADD SWAP1 POP DUP2 DUP2 SUB PUSH1 0x0 DUP4 ADD MSTORE PUSH2 0x1C24 DUP2 PUSH2 0x1A37 JUMP JUMPDEST SWAP1 POP SWAP2 SWAP1 POP JUMP JUMPDEST PUSH1 0x0 PUSH1 0x20 DUP3 ADD SWAP1 POP DUP2 DUP2 SUB PUSH1 0x0 DUP4 ADD MSTORE PUSH2 0x1C44 DUP2 PUSH2 0x1A5A JUMP JUMPDEST SWAP1 POP SWAP2 SWAP1 POP JUMP JUMPDEST PUSH1 0x0 PUSH1 0x20 DUP3 ADD SWAP1 POP DUP2 DUP2 SUB PUSH1 0x0 DUP4 ADD MSTORE PUSH2 0x1C64 DUP2 PUSH2 0x1A7D JUMP JUMPDEST SWAP1 POP SWAP2 SWAP1 POP JUMP JUMPDEST PUSH1 0x0 PUSH1 0x20 DUP3 ADD SWAP1 POP PUSH2 0x1C80 PUSH1 0x0 DUP4 ADD DUP5 PUSH2 0x1AA0 JUMP JUMPDEST SWAP3 SWAP2 POP POP JUMP JUMPDEST PUSH1 0x0 PUSH2 0x1C90 PUSH2 0x1CA1 JUMP JUMPDEST SWAP1 POP PUSH2 0x1C9C DUP3 DUP3 PUSH2 0x1EED JUMP JUMPDEST SWAP2 SWAP1 POP JUMP JUMPDEST PUSH1 0x0 PUSH1 0x40 MLOAD SWAP1 POP SWAP1 JUMP JUMPDEST PUSH1 0x0 PUSH8 0xFFFFFFFFFFFFFFFF DUP3 GT ISZERO PUSH2 0x1CC6 JUMPI PUSH2 0x1CC5 PUSH2 0x1FAB JUMP JUMPDEST JUMPDEST PUSH2 0x1CCF DUP3 PUSH2 0x1FEE JUMP JUMPDEST SWAP1 POP PUSH1 0x20 DUP2 ADD SWAP1 POP SWAP2 SWAP1 POP JUMP JUMPDEST PUSH1 0x0 DUP2 MLOAD SWAP1 POP SWAP2 SWAP1 POP JUMP JUMPDEST PUSH1 0x0 DUP3 DUP3 MSTORE PUSH1 0x20 DUP3 ADD SWAP1 POP SWAP3 SWAP2 POP POP JUMP JUMPDEST PUSH1 0x0 DUP2 SWAP1 POP SWAP3 SWAP2 POP POP JUMP JUMPDEST PUSH1 0x0 PUSH2 0x1D0E DUP3 PUSH2 0x1E4B JUMP JUMPDEST SWAP2 POP PUSH2 0x1D19 DUP4 PUSH2 0x1E4B JUMP JUMPDEST SWAP3 POP DUP3 PUSH32 0xFFFFFFFFFFFFFFFFFFFFFFFFFFFFFFFFFFFFFFFFFFFFFFFFFFFFFFFFFFFFFFFF SUB DUP3 GT ISZERO PUSH2 0x1D4E JUMPI PUSH2 0x1D4D PUSH2 0x1F1E JUMP JUMPDEST JUMPDEST DUP3 DUP3 ADD SWAP1 POP SWAP3 SWAP2 POP POP JUMP JUMPDEST PUSH1 0x0 PUSH2 0x1D64 DUP3 PUSH2 0x1E4B JUMP JUMPDEST SWAP2 POP PUSH2 0x1D6F DUP4 PUSH2 0x1E4B JUMP JUMPDEST SWAP3 POP DUP2 PUSH32 0xFFFFFFFFFFFFFFFFFFFFFFFFFFFFFFFFFFFFFFFFFFFFFFFFFFFFFFFFFFFFFFFF DIV DUP4 GT DUP3 ISZERO ISZERO AND ISZERO PUSH2 0x1DA8 JUMPI PUSH2 0x1DA7 PUSH2 0x1F1E JUMP JUMPDEST JUMPDEST DUP3 DUP3 MUL SWAP1 POP SWAP3 SWAP2 POP POP JUMP JUMPDEST PUSH1 0x0 PUSH2 0x1DBE DUP3 PUSH2 0x1E4B JUMP JUMPDEST SWAP2 POP PUSH2 0x1DC9 DUP4 PUSH2 0x1E4B JUMP JUMPDEST SWAP3 POP DUP3 DUP3 LT ISZERO PUSH2 0x1DDC JUMPI PUSH2 0x1DDB PUSH2 0x1F1E JUMP JUMPDEST JUMPDEST DUP3 DUP3 SUB SWAP1 POP SWAP3 SWAP2 POP POP JUMP JUMPDEST PUSH1 0x0 PUSH2 0x1DF2 DUP3 PUSH2 0x1E2B JUMP JUMPDEST SWAP1 POP SWAP2 SWAP1 POP JUMP JUMPDEST PUSH1 0x0 DUP2 ISZERO ISZERO SWAP1 POP SWAP2 SWAP1 POP JUMP JUMPDEST PUSH1 0x0 DUP2 SWAP1 POP PUSH2 0x1E13 DUP3 PUSH2 0x21DF JUMP JUMPDEST SWAP2 SWAP1 POP JUMP JUMPDEST PUSH1 0x0 DUP2 SWAP1 POP PUSH2 0x1E26 DUP3 PUSH2 0x21F3 JUMP JUMPDEST SWAP2 SWAP1 POP JUMP JUMPDEST PUSH1 0x0 PUSH20 0xFFFFFFFFFFFFFFFFFFFFFFFFFFFFFFFFFFFFFFFF DUP3 AND SWAP1 POP SWAP2 SWAP1 POP JUMP JUMPDEST PUSH1 0x0 DUP2 SWAP1 POP SWAP2 SWAP1 POP JUMP JUMPDEST PUSH1 0x0 PUSH2 0x1E60 DUP3 PUSH2 0x1E05 JUMP JUMPDEST SWAP1 POP SWAP2 SWAP1 POP JUMP JUMPDEST PUSH1 0x0 PUSH2 0x1E72 DUP3 PUSH2 0x1E18 JUMP JUMPDEST SWAP1 POP SWAP2 SWAP1 POP JUMP JUMPDEST DUP3 DUP2 DUP4 CALLDATACOPY PUSH1 0x0 DUP4 DUP4 ADD MSTORE POP POP POP JUMP JUMPDEST PUSH1 0x0 JUMPDEST DUP4 DUP2 LT ISZERO PUSH2 0x1EA6 JUMPI DUP1 DUP3 ADD MLOAD DUP2 DUP5 ADD MSTORE PUSH1 0x20 DUP2 ADD SWAP1 POP PUSH2 0x1E8B JUMP JUMPDEST DUP4 DUP2 GT ISZERO PUSH2 0x1EB5 JUMPI PUSH1 0x0 DUP5 DUP5 ADD MSTORE JUMPDEST POP POP POP POP JUMP JUMPDEST PUSH1 0x0 PUSH1 0x2 DUP3 DIV SWAP1 POP PUSH1 0x1 DUP3 AND DUP1 PUSH2 0x1ED3 JUMPI PUSH1 0x7F DUP3 AND SWAP2 POP JUMPDEST PUSH1 0x20 DUP3 LT DUP2 EQ ISZERO PUSH2 0x1EE7 JUMPI PUSH2 0x1EE6 PUSH2 0x1F7C JUMP JUMPDEST JUMPDEST POP SWAP2 SWAP1 POP JUMP JUMPDEST PUSH2 0x1EF6 DUP3 PUSH2 0x1FEE JUMP JUMPDEST DUP2 ADD DUP2 DUP2 LT PUSH8 0xFFFFFFFFFFFFFFFF DUP3 GT OR ISZERO PUSH2 0x1F15 JUMPI PUSH2 0x1F14 PUSH2 0x1FAB JUMP JUMPDEST JUMPDEST DUP1 PUSH1 0x40 MSTORE POP POP POP JUMP JUMPDEST PUSH32 0x4E487B7100000000000000000000000000000000000000000000000000000000 PUSH1 0x0 MSTORE PUSH1 0x11 PUSH1 0x4 MSTORE PUSH1 0x24 PUSH1 0x0 REVERT JUMPDEST PUSH32 0x4E487B7100000000000000000000000000000000000000000000000000000000 PUSH1 0x0 MSTORE PUSH1 0x21 PUSH1 0x4 MSTORE PUSH1 0x24 PUSH1 0x0 REVERT JUMPDEST PUSH32 0x4E487B7100000000000000000000000000000000000000000000000000000000 PUSH1 0x0 MSTORE PUSH1 0x22 PUSH1 0x4 MSTORE PUSH1 0x24 PUSH1 0x0 REVERT JUMPDEST PUSH32 0x4E487B7100000000000000000000000000000000000000000000000000000000 PUSH1 0x0 MSTORE PUSH1 0x41 PUSH1 0x4 MSTORE PUSH1 0x24 PUSH1 0x0 REVERT JUMPDEST PUSH1 0x0 DUP1 REVERT JUMPDEST PUSH1 0x0 DUP1 REVERT JUMPDEST PUSH1 0x0 DUP1 REVERT JUMPDEST PUSH1 0x0 DUP1 REVERT JUMPDEST PUSH1 0x0 PUSH1 0x1F NOT PUSH1 0x1F DUP4 ADD AND SWAP1 POP SWAP2 SWAP1 POP JUMP JUMPDEST PUSH32 0x506C65617365204465706F73697420612076616C696420616D6F756E74206772 PUSH1 0x0 DUP3 ADD MSTORE PUSH32 0x6561746572207468616E207A65726F0000000000000000000000000000000000 PUSH1 0x20 DUP3 ADD MSTORE POP JUMP JUMPDEST PUSH32 0x456E74657220612076616C6964206F70706F6E656E7420616464726573730000 PUSH1 0x0 DUP3 ADD MSTORE POP JUMP JUMPDEST PUSH32 0x496E76616C696420526573756C74000000000000000000000000000000000000 PUSH1 0x0 DUP3 ADD MSTORE POP JUMP JUMPDEST PUSH32 0x506C61796572732066756E64732061726520696E73756666696369656E740000 PUSH1 0x0 DUP3 ADD MSTORE POP JUMP JUMPDEST PUSH32 0x47616D65206E6F742073746172746564206F722068617320616C726561647920 PUSH1 0x0 DUP3 ADD MSTORE PUSH32 0x6265656E2070617274696369706174656420696E000000000000000000000000 PUSH1 0x20 DUP3 ADD MSTORE POP JUMP JUMPDEST PUSH32 0x506C617965722066756E64732061726520696E73756666696369656E74000000 PUSH1 0x0 DUP3 ADD MSTORE POP JUMP JUMPDEST PUSH32 0x4D6174636820646964206E6F742073746172746564206F7220696E76616C6964 PUSH1 0x0 DUP3 ADD MSTORE PUSH32 0x20636F6465000000000000000000000000000000000000000000000000000000 PUSH1 0x20 DUP3 ADD MSTORE POP JUMP JUMPDEST PUSH32 0x596F7520617265206E6F7420506C61796572203220666F722074686973206761 PUSH1 0x0 DUP3 ADD MSTORE PUSH32 0x6D65000000000000000000000000000000000000000000000000000000000000 PUSH1 0x20 DUP3 ADD MSTORE POP JUMP JUMPDEST PUSH1 0x3 DUP2 LT PUSH2 0x21F0 JUMPI PUSH2 0x21EF PUSH2 0x1F4D JUMP JUMPDEST JUMPDEST POP JUMP JUMPDEST PUSH1 0x3 DUP2 LT PUSH2 0x2204 JUMPI PUSH2 0x2203 PUSH2 0x1F4D JUMP JUMPDEST JUMPDEST POP JUMP JUMPDEST PUSH2 0x2210 DUP2 PUSH2 0x1DE7 JUMP JUMPDEST DUP2 EQ PUSH2 0x221B JUMPI PUSH1 0x0 DUP1 REVERT JUMPDEST POP JUMP JUMPDEST PUSH1 0x3 DUP2 LT PUSH2 0x222B JUMPI PUSH1 0x0 DUP1 REVERT JUMPDEST POP JUMP JUMPDEST PUSH2 0x2237 DUP2 PUSH2 0x1E4B JUMP JUMPDEST DUP2 EQ PUSH2 0x2242 JUMPI PUSH1 0x0 DUP1 REVERT JUMPDEST POP JUMP INVALID LOG2 PUSH5 0x6970667358 0x22 SLT KECCAK256 0xEF DIV POP 0xDD MUL SWAP10 CODECOPY 0xC1 0xB1 0x4C 0x49 DUP1 0x29 0xBC 0xC5 RETURNDATACOPY BYTE PUSH14 0x7F6121C8290EA9A9987FA7D6C8DC PUSH5 0x736F6C6343 STOP ADDMOD SMOD STOP CALLER "
		},
		"gasEstimates": {
			"creation": {
				"codeDepositCost": "1765400",
				"executionCost": "infinite",
				"totalCost": "infinite"
			},
			"external": {
				"compareStrings(string,string)": "infinite",
				"deposit()": "infinite",
				"endGame(string,string)": "infinite",
				"games(string)": "infinite",
				"getPlayerBalance(address)": "2907",
				"outcomes(uint8)": "infinite",
				"participateGame(string)": "infinite",
				"playerBalances(address)": "2881",
				"startGame(string,address,uint256)": "infinite"
			}
		},
		"methodIdentifiers": {
			"compareStrings(string,string)": "bed34bba",
			"deposit()": "d0e30db0",
			"endGame(string,string)": "60058390",
			"games(string)": "6d20931a",
			"getPlayerBalance(address)": "e2734c93",
			"outcomes(uint8)": "d43077e6",
			"participateGame(string)": "3b80e6ca",
			"playerBalances(address)": "7b38314c",
			"startGame(string,address,uint256)": "fbfeb0c7"
		}
	},
	"abi": [
		{
			"inputs": [],
			"stateMutability": "nonpayable",
			"type": "constructor"
		},
		{
			"anonymous": false,
			"inputs": [
				{
					"indexed": false,
					"internalType": "enum GameContract.GameOutcome",
					"name": "",
					"type": "uint8"
				}
			],
			"name": "GetGameOutcome",
			"type": "event"
		},
		{
			"inputs": [
				{
					"internalType": "string",
					"name": "a",
					"type": "string"
				},
				{
					"internalType": "string",
					"name": "b",
					"type": "string"
				}
			],
			"name": "compareStrings",
			"outputs": [
				{
					"internalType": "bool",
					"name": "",
					"type": "bool"
				}
			],
			"stateMutability": "view",
			"type": "function"
		},
		{
			"inputs": [],
			"name": "deposit",
			"outputs": [],
			"stateMutability": "payable",
			"type": "function"
		},
		{
			"inputs": [
				{
					"internalType": "string",
					"name": "gameCode",
					"type": "string"
				},
				{
					"internalType": "string",
					"name": "result",
					"type": "string"
				}
			],
			"name": "endGame",
			"outputs": [],
			"stateMutability": "nonpayable",
			"type": "function"
		},
		{
			"inputs": [
				{
					"internalType": "string",
					"name": "",
					"type": "string"
				}
			],
			"name": "games",
			"outputs": [
				{
					"internalType": "address",
					"name": "playerOne",
					"type": "address"
				},
				{
					"internalType": "address",
					"name": "playerTwo",
					"type": "address"
				},
				{
					"internalType": "uint256",
					"name": "stake",
					"type": "uint256"
				},
				{
					"internalType": "string",
					"name": "gameCode",
					"type": "string"
				},
				{
					"internalType": "enum GameContract.GameStatus",
					"name": "status",
					"type": "uint8"
				},
				{
					"internalType": "enum GameContract.GameOutcome",
					"name": "outcome",
					"type": "uint8"
				}
			],
			"stateMutability": "view",
			"type": "function"
		},
		{
			"inputs": [
				{
					"internalType": "address",
					"name": "playerAddress",
					"type": "address"
				}
			],
			"name": "getPlayerBalance",
			"outputs": [
				{
					"internalType": "uint256",
					"name": "playerBalance",
					"type": "uint256"
				}
			],
			"stateMutability": "view",
			"type": "function"
		},
		{
			"inputs": [
				{
					"internalType": "enum GameContract.GameOutcome",
					"name": "",
					"type": "uint8"
				}
			],
			"name": "outcomes",
			"outputs": [
				{
					"internalType": "string",
					"name": "",
					"type": "string"
				}
			],
			"stateMutability": "view",
			"type": "function"
		},
		{
			"inputs": [
				{
					"internalType": "string",
					"name": "gameCode",
					"type": "string"
				}
			],
			"name": "participateGame",
			"outputs": [],
			"stateMutability": "nonpayable",
			"type": "function"
		},
		{
			"inputs": [
				{
					"internalType": "address",
					"name": "",
					"type": "address"
				}
			],
			"name": "playerBalances",
			"outputs": [
				{
					"internalType": "uint256",
					"name": "",
					"type": "uint256"
				}
			],
			"stateMutability": "view",
			"type": "function"
		},
		{
			"inputs": [
				{
					"internalType": "string",
					"name": "gameCode",
					"type": "string"
				},
				{
					"internalType": "address",
					"name": "opponent",
					"type": "address"
				},
				{
					"internalType": "uint256",
					"name": "stake",
					"type": "uint256"
				}
			],
			"name": "startGame",
			"outputs": [],
			"stateMutability": "nonpayable",
			"type": "function"
		}
	]
}